{"contracts/DocumentVerification.sol":{"DocumentVerification":{"abi":[{"inputs":[],"stateMutability":"nonpayable","type":"constructor"},{"inputs":[],"name":"AccessControlBadConfirmation","type":"error"},{"inputs":[{"internalType":"address","name":"account","type":"address"},{"internalType":"bytes32","name":"neededRole","type":"bytes32"}],"name":"AccessControlUnauthorizedAccount","type":"error"},{"inputs":[],"name":"EnforcedPause","type":"error"},{"inputs":[],"name":"ExpectedPause","type":"error"},{"inputs":[],"name":"ReentrancyGuardReentrantCall","type":"error"},{"anonymous":false,"inputs":[{"indexed":true,"internalType":"string","name":"documentHash","type":"string"},{"indexed":true,"internalType":"string","name":"userDid","type":"string"},{"indexed":true,"internalType":"address","name":"anchorer","type":"address"},{"indexed":false,"internalType":"uint256","name":"timestamp","type":"uint256"},{"indexed":false,"internalType":"string","name":"metadata","type":"string"},{"indexed":false,"internalType":"uint256","name":"documentId","type":"uint256"}],"name":"DocumentAnchored","type":"event"},{"anonymous":false,"inputs":[{"indexed":true,"internalType":"string","name":"documentHash","type":"string"},{"indexed":false,"internalType":"string","name":"reason","type":"string"},{"indexed":true,"internalType":"address","name":"revoker","type":"address"},{"indexed":false,"internalType":"uint256","name":"timestamp","type":"uint256"},{"indexed":false,"internalType":"uint256","name":"documentId","type":"uint256"}],"name":"DocumentRevoked","type":"event"},{"anonymous":false,"inputs":[{"indexed":true,"internalType":"string","name":"documentHash","type":"string"},{"indexed":false,"internalType":"string","name":"newMetadata","type":"string"},{"indexed":true,"internalType":"address","name":"updater","type":"address"},{"indexed":false,"internalType":"uint256","name":"timestamp","type":"uint256"},{"indexed":false,"internalType":"uint256","name":"documentId","type":"uint256"}],"name":"DocumentUpdated","type":"event"},{"anonymous":false,"inputs":[{"indexed":false,"internalType":"address","name":"account","type":"address"}],"name":"Paused","type":"event"},{"anonymous":false,"inputs":[{"indexed":true,"internalType":"bytes32","name":"role","type":"bytes32"},{"indexed":true,"internalType":"bytes32","name":"previousAdminRole","type":"bytes32"},{"indexed":true,"internalType":"bytes32","name":"newAdminRole","type":"bytes32"}],"name":"RoleAdminChanged","type":"event"},{"anonymous":false,"inputs":[{"indexed":true,"internalType":"bytes32","name":"role","type":"bytes32"},{"indexed":true,"internalType":"address","name":"account","type":"address"},{"indexed":true,"internalType":"address","name":"sender","type":"address"}],"name":"RoleGranted","type":"event"},{"anonymous":false,"inputs":[{"indexed":true,"internalType":"bytes32","name":"role","type":"bytes32"},{"indexed":true,"internalType":"address","name":"account","type":"address"},{"indexed":true,"internalType":"address","name":"sender","type":"address"}],"name":"RoleRevoked","type":"event"},{"anonymous":false,"inputs":[{"indexed":false,"internalType":"address","name":"account","type":"address"}],"name":"Unpaused","type":"event"},{"inputs":[],"name":"ADMIN_ROLE","outputs":[{"internalType":"bytes32","name":"","type":"bytes32"}],"stateMutability":"view","type":"function"},{"inputs":[],"name":"ANCHOR_ROLE","outputs":[{"internalType":"bytes32","name":"","type":"bytes32"}],"stateMutability":"view","type":"function"},{"inputs":[],"name":"DEFAULT_ADMIN_ROLE","outputs":[{"internalType":"bytes32","name":"","type":"bytes32"}],"stateMutability":"view","type":"function"},{"inputs":[],"name":"REVOKE_ROLE","outputs":[{"internalType":"bytes32","name":"","type":"bytes32"}],"stateMutability":"view","type":"function"},{"inputs":[{"internalType":"string","name":"documentHash","type":"string"},{"internalType":"string","name":"userDid","type":"string"},{"internalType":"string","name":"metadata","type":"string"}],"name":"anchorDocument","outputs":[],"stateMutability":"payable","type":"function"},{"inputs":[{"internalType":"string","name":"","type":"string"}],"name":"documentExists","outputs":[{"internalType":"bool","name":"","type":"bool"}],"stateMutability":"view","type":"function"},{"inputs":[{"internalType":"uint256","name":"","type":"uint256"},{"internalType":"uint256","name":"","type":"uint256"}],"name":"documentHistory","outputs":[{"internalType":"uint256","name":"timestamp","type":"uint256"},{"internalType":"string","name":"action","type":"string"},{"internalType":"string","name":"metadata","type":"string"},{"internalType":"address","name":"actor","type":"address"}],"stateMutability":"view","type":"function"},{"inputs":[{"internalType":"string","name":"","type":"string"}],"name":"documents","outputs":[{"internalType":"string","name":"userDid","type":"string"},{"internalType":"uint256","name":"timestamp","type":"uint256"},{"internalType":"string","name":"metadata","type":"string"},{"internalType":"bool","name":"exists","type":"bool"},{"internalType":"bool","name":"revoked","type":"bool"},{"internalType":"string","name":"revocationReason","type":"string"},{"internalType":"uint256","name":"revocationTimestamp","type":"uint256"},{"internalType":"address","name":"anchorer","type":"address"},{"internalType":"address","name":"revoker","type":"address"},{"internalType":"uint256","name":"documentId","type":"uint256"},{"internalType":"uint256","name":"version","type":"uint256"}],"stateMutability":"view","type":"function"},{"inputs":[],"name":"getContractStats","outputs":[{"internalType":"uint256","name":"totalDocuments","type":"uint256"},{"internalType":"uint256","name":"totalRevoked","type":"uint256"},{"internalType":"uint256","name":"maxMetadataSize","type":"uint256"},{"internalType":"uint256","name":"maxDocumentsPerUser","type":"uint256"},{"internalType":"uint256","name":"minAnchoringFee","type":"uint256"}],"stateMutability":"view","type":"function"},{"inputs":[{"internalType":"string","name":"documentHash","type":"string"}],"name":"getDocumentHistory","outputs":[{"internalType":"uint256[]","name":"timestamps","type":"uint256[]"},{"internalType":"string[]","name":"actions","type":"string[]"},{"internalType":"string[]","name":"metadatas","type":"string[]"},{"internalType":"address[]","name":"actors","type":"address[]"}],"stateMutability":"view","type":"function"},{"inputs":[{"internalType":"bytes32","name":"role","type":"bytes32"}],"name":"getRoleAdmin","outputs":[{"internalType":"bytes32","name":"","type":"bytes32"}],"stateMutability":"view","type":"function"},{"inputs":[{"internalType":"address","name":"user","type":"address"}],"name":"getUserDocuments","outputs":[{"internalType":"uint256[]","name":"documentIds","type":"uint256[]"}],"stateMutability":"view","type":"function"},{"inputs":[{"internalType":"bytes32","name":"role","type":"bytes32"},{"internalType":"address","name":"account","type":"address"}],"name":"grantRole","outputs":[],"stateMutability":"nonpayable","type":"function"},{"inputs":[{"internalType":"bytes32","name":"role","type":"bytes32"},{"internalType":"address","name":"account","type":"address"}],"name":"hasRole","outputs":[{"internalType":"bool","name":"","type":"bool"}],"stateMutability":"view","type":"function"},{"inputs":[],"name":"maxDocumentsPerUser","outputs":[{"internalType":"uint256","name":"","type":"uint256"}],"stateMutability":"view","type":"function"},{"inputs":[],"name":"maxMetadataSize","outputs":[{"internalType":"uint256","name":"","type":"uint256"}],"stateMutability":"view","type":"function"},{"inputs":[],"name":"minAnchoringFee","outputs":[{"internalType":"uint256","name":"","type":"uint256"}],"stateMutability":"view","type":"function"},{"inputs":[],"name":"pause","outputs":[],"stateMutability":"nonpayable","type":"function"},{"inputs":[],"name":"paused","outputs":[{"internalType":"bool","name":"","type":"bool"}],"stateMutability":"view","type":"function"},{"inputs":[{"internalType":"bytes32","name":"role","type":"bytes32"},{"internalType":"address","name":"callerConfirmation","type":"address"}],"name":"renounceRole","outputs":[],"stateMutability":"nonpayable","type":"function"},{"inputs":[{"internalType":"string","name":"documentHash","type":"string"},{"internalType":"string","name":"reason","type":"string"}],"name":"revokeDocument","outputs":[],"stateMutability":"nonpayable","type":"function"},{"inputs":[{"internalType":"bytes32","name":"role","type":"bytes32"},{"internalType":"address","name":"account","type":"address"}],"name":"revokeRole","outputs":[],"stateMutability":"nonpayable","type":"function"},{"inputs":[{"internalType":"bytes4","name":"interfaceId","type":"bytes4"}],"name":"supportsInterface","outputs":[{"internalType":"bool","name":"","type":"bool"}],"stateMutability":"view","type":"function"},{"inputs":[],"name":"unpause","outputs":[],"stateMutability":"nonpayable","type":"function"},{"inputs":[{"internalType":"uint256","name":"newMaxMetadataSize","type":"uint256"},{"internalType":"uint256","name":"newMaxDocumentsPerUser","type":"uint256"},{"internalType":"uint256","name":"newMinAnchoringFee","type":"uint256"}],"name":"updateConfiguration","outputs":[],"stateMutability":"nonpayable","type":"function"},{"inputs":[{"internalType":"string","name":"documentHash","type":"string"},{"internalType":"string","name":"newMetadata","type":"string"}],"name":"updateDocumentMetadata","outputs":[],"stateMutability":"nonpayable","type":"function"},{"inputs":[{"internalType":"address","name":"","type":"address"},{"internalType":"uint256","name":"","type":"uint256"}],"name":"userDocuments","outputs":[{"internalType":"uint256","name":"","type":"uint256"}],"stateMutability":"view","type":"function"},{"inputs":[{"internalType":"string","name":"documentHash","type":"string"}],"name":"verifyDocument","outputs":[{"internalType":"bool","name":"exists","type":"bool"},{"internalType":"string","name":"userDid","type":"string"},{"internalType":"uint256","name":"timestamp","type":"uint256"},{"internalType":"string","name":"metadata","type":"string"},{"internalType":"bool","name":"revoked","type":"bool"},{"internalType":"uint256","name":"documentId","type":"uint256"}],"stateMutability":"view","type":"function"},{"inputs":[],"name":"withdrawBalance","outputs":[],"stateMutability":"nonpayable","type":"function"},{"stateMutability":"payable","type":"receive"}],"evm":{"bytecode":{"linkReferences":{},"object":"60806040523462000075576001600055600060075560006008556000600955612710600a556103e8600b5566038d7ea4c68000600c5562000040336200007a565b506200004c33620000fb565b5062000058336200019e565b5062000064336200023c565b5060405161286f9081620002db8239f35b600080fd5b6001600160a01b031660008181527fa6eef7e35abe7026729641147f7915573c7e97b47efa546f5f6e3230263bcb49602052604081205490919060ff16620000f75781805260016020526040822081835260205260408220600160ff19825416179055339160008051602062002b4a8339815191528180a4600190565b5090565b6001600160a01b031660008181527f50efbde2d46c37e9785f1791697f77e94bb7b701e19f1930a668820722d3769460205260408120549091907fa49807205ce4d355092ef5a8a18f56e8913cf4a201fbe287825b095693c217759060ff16620001995780835260016020526040832082845260205260408320600160ff1982541617905560008051602062002b4a833981519152339380a4600190565b505090565b6001600160a01b031660008181527f220038dd9bf29a5aa35dde1e10c90c54e92809770d3e12470dc41d08d0241d4760205260408120549091907f08b5ce2e3163e37059f807346dad4dd6235ed44f92dced22992662cb457063629060ff16620001995780835260016020526040832082845260205260408320600160ff1982541617905560008051602062002b4a833981519152339380a4600190565b6001600160a01b031660008181527f5484fcf1c8b2251e43fe4c0eae0ae144bbe4ae3c104340c02444d8c4a0739a7260205260408120549091907f5297e68f3a27f04914f2c6db0ad63b5e5c8173cebcc1a5341df045cf6dad7adc9060ff16620001995780835260016020526040832082845260205260408320600160ff1982541617905560008051602062002b4a833981519152339380a460019056fe608080604052600436101561001d575b50361561001b57600080fd5b005b60003560e01c90816301ffc9a714611d02575080631018416114611a6d578063175fa63614611a4f578063248a9ca314611a205780632f2ff15d146119e15780633026785f1461199357806336568abe1461194c5780633f4ba83a146118e2578063478e285c146114ff5780634e6aa7b914610ccc578063577a1b9214610c745780635c975abb14610c515780635fd8c71014610b7c57806372e697521461081f57806375b238fc146107e45780638456cb591461078a5780638b38b5141461074f57806390a4b162146106c057806391d1485414610673578063a217fddf14610657578063b31d2117146105be578063b3dd697b146104b2578063beee5eb714610349578063c501651a1461025f578063c9e9c64114610241578063d547741f14610202578063dfe6b5d6146101c7578063e9e3e15c146101a95763fd5f48c514610169573861000f565b346101a45760003660031901126101a45760206040517f08b5ce2e3163e37059f807346dad4dd6235ed44f92dced22992662cb457063628152f35b600080fd5b346101a45760003660031901126101a4576020600a54604051908152f35b346101a45760003660031901126101a45760a06008546009546040519182526020820152600060408201526000606082015260006080820152f35b346101a45760403660031901126101a45761001b600435610221611e70565b9080600052600160205261023c600160406000200154612156565b6121fc565b346101a45760003660031901126101a4576020600b54604051908152f35b346101a45760603660031901126101a45760243560043561027e6120fa565b80156102f357811561029857600a55600b55604435600c55005b60405162461bcd60e51b815260206004820152602d60248201527f4d617820646f63756d656e7473207065722075736572206d757374206265206760448201526c0726561746572207468616e203609c1b6064820152608490fd5b60405162461bcd60e51b815260206004820152602860248201527f4d6178206d657461646174612073697a65206d75737420626520677265617465604482015267072207468616e20360c41b6064820152608490fd5b346101a45760203660031901126101a4576004356001600160401b0381116101a457602061037e6103af923690600401611de3565b61038b6040825114612273565b61039c61039782612784565b6122bf565b8160405193828580945193849201611e9c565b810160038152030190206040516103c581611d70565b6103ce82611ff8565b8152600182015491602082019283526103e960028201611ff8565b90604083019182526104a36003820154926060850160ff85161515815260ff608087019560081c161515855261042160048501611ff8565b60a0870152600584015460c087015260018060a01b038060068601541660e088015260078501541661010087015260096008850154948561012089015201546101408701525115159451955190519351151593610490604051978897885260c0602089015260c0880190611f21565b9160408701528582036060870152611f21565b91608084015260a08301520390f35b346101a45760203660031901126101a4576004356001600160401b0381116101a45761056a6104eb602061039c81943690600401611de3565b810160038152030190206104fe81611ff8565b9060018101549061051160028201611ff8565b60038201549361059d61052660048501611ff8565b9560058501549660ff61057a60018060a01b03958660068a0154169660078a01541697600960088b01549a01549a6040519e8f9e8f94610160808752860190611f21565b9301528c820360408e0152611f21565b92818116151560608c015260081c16151560808a015288820360a08a0152611f21565b9460c087015260e08601526101008501526101208401526101408301520390f35b346101a45760403660031901126101a457602435600435600052600560205260406000209081548110156101a4576105f591611fa2565b50805461060460018301611ff8565b9161064d61061460028301611ff8565b91600360018060a01b03910154169161063f6040519586958652608060208701526080860190611f21565b908482036040860152611f21565b9060608301520390f35b346101a45760003660031901126101a457602060405160008152f35b346101a45760403660031901126101a45761068c611e70565b600435600052600160205260406000209060018060a01b0316600052602052602060ff604060002054166040519015158152f35b346101a4576020806003193601126101a4576001600160a01b036106e2611e86565b1660005260068152604060002090604051808383829554938481520190600052836000209260005b858282106107395750505061072192500383611da7565b610735604051928284938452830190611eed565b0390f35b855484526001958601958895509301920161070a565b346101a45760003660031901126101a45760206040517f5297e68f3a27f04914f2c6db0ad63b5e5c8173cebcc1a5341df045cf6dad7adc8152f35b346101a45760003660031901126101a4576107a36120fa565b6107ab61261e565b600160ff1960025416176002557f62e78cea01bee320cd4e420270b5ea74000d11b0c9f74754ebdbfc544b05a2586020604051338152a1005b346101a45760003660031901126101a45760206040517fa49807205ce4d355092ef5a8a18f56e8913cf4a201fbe287825b095693c217758152f35b346101a4576020806003193601126101a4576004356001600160401b0381116101a457610850903690600401611de3565b61085d6040825114612273565b61086961039782612784565b6040519061089760ff82519385818186019661088681838a611e9c565b81016004815203019020541661265f565b6108a960405192839251928391611e9c565b8101908281600393848152030190206040516108c481611d70565b6108cd82611ff8565b815260019182810154858301526002936108e8858301611ff8565b6040840152808201549160ff60609381811615158587015260081c161515608085015261091760048201611ff8565b60a0850152600581015460c085015260018060a01b03938460068301541660e08201528460078301541661010082015261014060096008840154938461012085015201549101526000526005865260406000208054916109768361270f565b966109846040519889611da7565b8388526000928352888320918989015b858510610b27575050505050508351946109ad8661270f565b946109bb6040519687611da7565b868652601f1996876109cc8261270f565b0136848901376109db81612726565b6109e482612726565b916109ee8161270f565b936109fc6040519586611da7565b818552610a088261270f565b8587019b01368c3760005b828110610a8f57505050839291610a49610a5792610a3c6040519b60808d5260808d0190611eed565b908b8203878d0152611f46565b9089820360408b0152611f46565b938785039088015251928381520195926000905b838210610a785786880387f35b845181168852968201969382019390850190610a6b565b808b610ab1829c9e9c610aa9610b1b95879e9c9d9e612770565b515192612770565b5288610abd8285612770565b510151610aca8287612770565b52610ad58186612770565b506040610ae28285612770565b510151610aef8288612770565b52610afa8187612770565b50878a610b078386612770565b51015116610b158289612770565b5261234c565b9a989a97969597610a13565b9760048b829c98999a604051610b3c81611d55565b87548152610b4b858901611ff8565b83820152610b5a878901611ff8565b60408201528c86890154168c8201528152019401940193929997969599610994565b346101a45760003660031901126101a457610b956120fa565b478015610c1357600080808093335af13d15610c0e573d610bb581611dc8565b90610bc36040519283611da7565b8152600060203d92013e5b15610bd557005b60405162461bcd60e51b815260206004820152601160248201527015da5d1a191c985dd85b0819985a5b1959607a1b6044820152606490fd5b610bce565b60405162461bcd60e51b81526020600482015260166024820152754e6f2062616c616e636520746f20776974686472617760501b6044820152606490fd5b346101a45760003660031901126101a457602060ff600254166040519015158152f35b346101a45760403660031901126101a457610c8d611e86565b6001600160a01b03166000908152600660205260409020805460243591908210156101a457602091610cbe91611ebf565b90546040519160031b1c8152f35b60603660031901126101a4576004356001600160401b0381116101a457610cf7903690600401611de3565b6024356001600160401b0381116101a457610d16903690600401611de3565b60449081356001600160401b0381116101a457610d37903690600401611de3565b91610d4061263c565b610d4861261e565b610d5061209e565b610d5d6040855114612273565b610d6961039785612784565b600a8251106114c65760ff82511161148e57610d8a8351600a54101561230b565b60ff6040516020818751610da18183858c01611e9c565b81016004815203019020541661144a57600c54341061140657336000526006602052604060002054600b5411156113c25750610dde60075461234c565b9283600755604051610def81611d70565b82815242602082015283604082015260016060820152600060808201526040518060208101106001600160401b0360208301111761114d57602081016040526000815260a0820152600060c08201523360e082015260006101008201528461012082015260016101408201526040516020818451610e708183858901611e9c565b6003818301528101030190209080518051906001600160401b03821161114d578190610e9c8554611fbe565b601f8111611372575b50602090601f8311600114611306576000926112fb575b50508160011b916000199060031b1c19161782555b6020810151600183015560408101518051906001600160401b03821161114d578190610f006002860154611fbe565b601f81116112a8575b50602090601f83116001146112365760009261122b575b50508160011b916000199060031b1c19161760028301555b6003820160608201511515815460ff61ff006080860151151560081b1692169061ffff19161717905560a08101518051906001600160401b03821161114d57610f846004850154611fbe565b601f81116111e4575b50602090601f831160011461116e5791806009949261014094600092611163575b50508160011b916000199060031b1c19161760048501555b60c081015160058501556006840160018060a01b03908160e084015116906001600160601b0360a01b91828254161790556007860191610100840151169082541617905561012081015160088501550151910155604051602081835161102f8183858801611e9c565b81016004815203019020600160ff1982541617905533600052600660205260406000208054600160401b81101561114d577f55c2ea922c3a5fd1509d0c21dc15b4bd366d5f3aca799df557c19c1dae262572926110988261111e94600161111895018155611ebf565b81549060031b9089821b91600019901b19161790558660005260056020526111056040600020604051906110cb82611d55565b4282526040516110da81611d8c565b6008815267105390d213d4915160c21b60208201526020830152886040830152336060830152612371565b61111060085461234c565b6008556125fe565b926125fe565b9261113a60405191428352606060208401526060830190611f21565b9460408201528033950390a46001600055005b634e487b7160e01b600052604160045260246000fd5b015190508a80610fae565b906004850160005260206000209160005b601f19851681106111cc575092600994926001926101409583601f198116106111b3575b505050811b016004850155610fc6565b015160001960f88460031b161c191690558a80806111a3565b9192602060018192868501518155019401920161117f565b600485016000526020600020601f840160051c810160208510611224575b601f830160051c82018110611218575050610f8d565b60008155600101611202565b5080611202565b015190508880610f20565b9250600285016000526020600020906000935b601f198416851061128d576001945083601f19811610611274575b505050811b016002830155610f38565b015160001960f88460031b161c19169055888080611264565b81810151835560209485019460019093019290910190611249565b909150600285016000526020600020601f840160051c8101602085106112f4575b90849392915b601f830160051c820181106112e5575050610f09565b600081558594506001016112cf565b50806112c9565b015190508880610ebc565b9250846000526020600020906000935b601f1984168510611357576001945083601f1981161061133e575b505050811b018255610ed1565b015160001960f88460031b161c19169055888080611331565b81810151835560209485019460019093019290910190611316565b909150846000526020600020601f840160051c8101602085106113bb575b90849392915b601f830160051c820181106113ac575050610ea5565b60008155859450600101611396565b5080611390565b6064907f5573657220646f63756d656e74206c696d6974206578636565646564000000006040519162461bcd60e51b835260206004840152601c6024840152820152fd5b6064907f496e73756666696369656e7420616e63686f72696e67206665650000000000006040519162461bcd60e51b835260206004840152601a6024840152820152fd5b6064907f446f63756d656e7420616c7265616479206578697374730000000000000000006040519162461bcd60e51b83526020600484015260176024840152820152fd5b60649070557365722044494420746f6f206c6f6e6760781b6040519162461bcd60e51b83526020600484015260116024840152820152fd5b60649071155cd95c88111251081d1bdbc81cda1bdc9d60721b6040519162461bcd60e51b83526020600484015260126024840152820152fd5b346101a45761150d36611e2a565b61151561263c565b61151d61261e565b3360009081527f5484fcf1c8b2251e43fe4c0eae0ae144bbe4ae3c104340c02444d8c4a0739a72602090815260409091205460019391907f5297e68f3a27f04914f2c6db0ad63b5e5c8173cebcc1a5341df045cf6dad7adc9060ff16156118c4575061158c6040835114612273565b61159861039783612784565b6040516115b460ff845192848181880195610886818389611e9c565b604051906115e660ff85516115ca818686611e9c565b84018486600396838880955203019020015460081c16156126ab565b84511561187f576103e885511161183a578261160d91604051809381928851928391611e9c565b8101848152030190209080820161010061ff001982541617905560048201908551906001600160401b03821161114d576116478354611fbe565b601f81116117f1575b50878588601f85116001146117555794848061171c957eb761edbeec2b2c2556725f3190e3757b743d4d4beb14b00071207f07e28b879a976008966117429b966117319b60009561174a575b50501b92600019911b1c19161790555b42600582015560078101336001600160601b0360a01b82541617905501918254600052600581526040600020604051916116e583611d55565b428352604051906116f582611d8c565b600782526614915593d2d15160ca1b81830152830152886040830152336060830152612371565b61172760095461234c565b60095554936125fe565b9260405191829133964290846126ed565b0390a3600055005b01519350388f61169c565b50909291601f198316918560005289886000209360005b8181106117d8575094600894611742999461173199947eb761edbeec2b2c2556725f3190e3757b743d4d4beb14b00071207f07e28b879c99948461171c9a106117be575b50505050811b0190556116ac565b01519060f884600019921b161c191690558d80808e6117b0565b9183015185558c9690940193918901918b918a0161176c565b8360005285600020601f840160051c810191878510611830575b601f0160051c019089905b828110611824575050611650565b60008155018990611816565b909150819061180b565b60405162461bcd60e51b815260048101849052601a60248201527f5265766f636174696f6e20726561736f6e20746f6f206c6f6e670000000000006044820152606490fd5b60405162461bcd60e51b815260048101849052601a60248201527f5265766f636174696f6e20726561736f6e2072657175697265640000000000006044820152606490fd5b6044906040519063e2517d3f60e01b82523360048301526024820152fd5b346101a45760003660031901126101a4576118fb6120fa565b60025460ff81161561193a5760ff19166002557f5db9ee0a495bf2e6ff9c91a7834c1ba4fdd244a5e8aa4e537bd38aeae4b073aa6020604051338152a1005b604051638dfc202b60e01b8152600490fd5b346101a45760403660031901126101a457611965611e70565b336001600160a01b038216036119815761001b906004356121fc565b60405163334bd91960e11b8152600490fd5b346101a45760203660031901126101a4576004356001600160401b0381116101a45760ff6119cb602061039c81943690600401611de3565b8101600481520301902054166040519015158152f35b346101a45760403660031901126101a45761001b600435611a00611e70565b90806000526001602052611a1b600160406000200154612156565b61217c565b346101a45760203660031901126101a45760043560005260016020526020600160406000200154604051908152f35b346101a45760003660031901126101a4576020600c54604051908152f35b346101a457611a7b36611e2a565b90611a8461263c565b611a8c61261e565b611a9461209e565b611aa16040825114612273565b611aad61039782612784565b611abc8251600a54101561230b565b60ff611b1e6040518351611adf60209483868095818a0195610886818389611e9c565b611b0d60ff600360405185818a51611af881838a611e9c565b810184815203019020015460081c16156126ab565b604051809381928751928391611e9c565b810160038152030190206002810184516001600160401b03811161114d57611b468254611fbe565b601f8111611cbc575b5083601f8211600114611c2a576008611c159461173194847f757c4dae4ef0e053674623dbf3e6ab05ed107c11509bf3def329e305aff3184d9895611c0e95600091611c1f575b508160011b916000199060031b1c19161790555b60098101611bb8815461234c565b90550191825460005260058152604060002060405191611bd783611d55565b42835260405190611be782611d8c565b60078252661554111055115160ca1b81830152830152886040830152336060830152612371565b54936125fe565b0390a36001600055005b90508b01518c611b96565b601f1982169083600052856000209160005b818110611ca557509461173194600185611c0e956008957f757c4dae4ef0e053674623dbf3e6ab05ed107c11509bf3def329e305aff3184d9b98611c159b10611c8c575b5050811b019055611baa565b8d015160001960f88460031b161c191690558c80611c80565b91928760018192868d015181550194019201611c3c565b8260005284600020601f830160051c810191868410611cf8575b601f0160051c01905b818110611cec5750611b4f565b60008155600101611cdf565b9091508190611cd6565b346101a45760203660031901126101a4576004359063ffffffff60e01b82168092036101a457602091637965db0b60e01b8114908115611d44575b5015158152f35b6301ffc9a760e01b14905083611d3d565b608081019081106001600160401b0382111761114d57604052565b61016081019081106001600160401b0382111761114d57604052565b604081019081106001600160401b0382111761114d57604052565b90601f801991011681019081106001600160401b0382111761114d57604052565b6001600160401b03811161114d57601f01601f191660200190565b81601f820112156101a457803590611dfa82611dc8565b92611e086040519485611da7565b828452602083830101116101a457816000926020809301838601378301015290565b9060406003198301126101a4576001600160401b036004358181116101a45783611e5691600401611de3565b926024359182116101a457611e6d91600401611de3565b90565b602435906001600160a01b03821682036101a457565b600435906001600160a01b03821682036101a457565b60005b838110611eaf5750506000910152565b8181015183820152602001611e9f565b8054821015611ed75760005260206000200190600090565b634e487b7160e01b600052603260045260246000fd5b90815180825260208080930193019160005b828110611f0d575050505090565b835185529381019392810192600101611eff565b90602091611f3a81518092818552858086019101611e9c565b601f01601f1916010190565b908082519081815260208091019281808460051b8301019501936000915b848310611f745750505050505090565b9091929394958480611f92600193601f198682030187528a51611f21565b9801930193019194939290611f64565b8054821015611ed75760005260206000209060021b0190600090565b90600182811c92168015611fee575b6020831014611fd857565b634e487b7160e01b600052602260045260246000fd5b91607f1691611fcd565b906040519182600082549261200c84611fbe565b90818452600194858116908160001461207b5750600114612038575b505061203692500383611da7565b565b9093915060005260209081600020936000915b81831061206357505061203693508201013880612028565b8554888401850152948501948794509183019161204b565b91505061203694506020925060ff191682840152151560051b8201013880612028565b3360009081527f220038dd9bf29a5aa35dde1e10c90c54e92809770d3e12470dc41d08d0241d4760205260409020547f08b5ce2e3163e37059f807346dad4dd6235ed44f92dced22992662cb457063629060ff16156118c45750565b3360009081527f50efbde2d46c37e9785f1791697f77e94bb7b701e19f1930a668820722d3769460205260409020547fa49807205ce4d355092ef5a8a18f56e8913cf4a201fbe287825b095693c217759060ff16156118c45750565b80600052600160205260406000203360005260205260ff60406000205416156118c45750565b906000918083526001602052604083209160018060a01b03169182845260205260ff604084205416156000146121f75780835260016020526040832082845260205260408320600160ff198254161790557f2f8788117e7eff1d82e926ec794901d17c78024a50270940304540a733656f0d339380a4600190565b505090565b906000918083526001602052604083209160018060a01b03169182845260205260ff6040842054166000146121f7578083526001602052604083208284526020526040832060ff1981541690557ff6391f5c32d9c69d2a47ea670b442974b53935d1edc7fd64eb21e047a839171b339380a4600190565b1561227a57565b60405162461bcd60e51b815260206004820152601c60248201527f496e76616c696420646f63756d656e742068617368206c656e677468000000006044820152606490fd5b156122c657565b60405162461bcd60e51b815260206004820152601c60248201527f496e76616c696420646f63756d656e74206861736820666f726d6174000000006044820152606490fd5b1561231257565b60405162461bcd60e51b81526020600482015260126024820152714d6574616461746120746f6f206c6172676560701b6044820152606490fd5b600019811461235b5760010190565b634e487b7160e01b600052601160045260246000fd5b91908254600160401b81101561114d57612392906001948582018155611fa2565b6125e8578151815583810193602090818401518051966001600160401b039788811161114d57806123c38354611fbe565b93601f94858111612596575b50869085831160011461253357600092612528575b5050600019600383901b1c191690841b1790555b6002840192604086015190815198891161114d576124168554611fbe565b8381116124e2575b508092891160011461247b575096809281926003979899600094612470575b50501b9160001990861b1c19161790555b0190606060018060a01b03910151166001600160601b0360a01b825416179055565b01519250388061243d565b909791601f198316988560005282600020926000905b8b82106124cb57505083600398999a106124b3575b505050811b01905561244e565b015160001983881b60f8161c191690553880806124a6565b808785968294968601518155019501930190612491565b856000528160002084808c0160051c820192848d1061251f575b0160051c019085905b82811061251357505061241e565b60008155018590612505565b925081926124fc565b0151905038806123e4565b90869350601f1983169185600052886000209260005b8a8282106125805750508411612567575b505050811b0190556123f8565b015160001960f88460031b161c1916905538808061255a565b8385015186558a97909501949384019301612549565b90915060008481528781208680860160051c8201938a87106125df575b91899187969594930160051c01925b8381106125d1575050506123cf565b8281558695508991016125c2565b935081936125b3565b634e487b7160e01b600052600060045260246000fd5b61261690602060405192828480945193849201611e9c565b810103902090565b60ff6002541661262a57565b60405163d93c066560e01b8152600490fd5b60026000541461264d576002600055565b604051633ee5aeb560e01b8152600490fd5b1561266657565b60405162461bcd60e51b815260206004820152601760248201527f446f63756d656e7420646f6573206e6f742065786973740000000000000000006044820152606490fd5b156126b257565b60405162461bcd60e51b8152602060048201526013602482015272111bd8dd5b595b9d081a5cc81c995d9bdad959606a1b6044820152606490fd5b61270560409295949395606083526060830190611f21565b9460208201520152565b6001600160401b03811161114d5760051b60200190565b906127308261270f565b61273d6040519182611da7565b828152809261274e601f199161270f565b019060005b82811061275f57505050565b806060602080938501015201612753565b8051821015611ed75760209160051b010190565b6000805b825181101561283157828101602001516001600160f81b031916600360fc1b81101580612823575b1590816127fe575b816127d7575b506127d1576127cc9061234c565b612788565b50905090565b604160f81b8110159150816127ef575b5015386127be565b602360f91b10159050386127e7565b9050606160f81b81101580612815575b15906127b8565b50603360f91b81111561280e565b50603960f81b8111156127b0565b50505060019056fea2646970667358221220ec2d92ff5a23e054adafb7b56c5487de00c843b751833cf24e0cbd616c87486a64736f6c634300081400332f8788117e7eff1d82e926ec794901d17c78024a50270940304540a733656f0d","opcodes":"PUSH1 0x80 PUSH1 0x40 MSTORE CALLVALUE PUSH3 0x75 JUMPI PUSH1 0x1 PUSH1 0x0 SSTORE PUSH1 0x0 PUSH1 0x7 SSTORE PUSH1 0x0 PUSH1 0x8 SSTORE PUSH1 0x0 PUSH1 0x9 SSTORE PUSH2 0x2710 PUSH1 0xA SSTORE PUSH2 0x3E8 PUSH1 0xB SSTORE PUSH7 0x38D7EA4C68000 PUSH1 0xC SSTORE PUSH3 0x40 CALLER PUSH3 0x7A JUMP JUMPDEST POP PUSH3 0x4C CALLER PUSH3 0xFB JUMP JUMPDEST POP PUSH3 0x58 CALLER PUSH3 0x19E JUMP JUMPDEST POP PUSH3 0x64 CALLER PUSH3 0x23C JUMP JUMPDEST POP PUSH1 0x40 MLOAD PUSH2 0x286F SWAP1 DUP2 PUSH3 0x2DB DUP3 CODECOPY RETURN JUMPDEST PUSH1 0x0 DUP1 REVERT JUMPDEST PUSH1 0x1 PUSH1 0x1 PUSH1 0xA0 SHL SUB AND PUSH1 0x0 DUP2 DUP2 MSTORE PUSH32 0xA6EEF7E35ABE7026729641147F7915573C7E97B47EFA546F5F6E3230263BCB49 PUSH1 0x20 MSTORE PUSH1 0x40 DUP2 KECCAK256 SLOAD SWAP1 SWAP2 SWAP1 PUSH1 0xFF AND PUSH3 0xF7 JUMPI DUP2 DUP1 MSTORE PUSH1 0x1 PUSH1 0x20 MSTORE PUSH1 0x40 DUP3 KECCAK256 DUP2 DUP4 MSTORE PUSH1 0x20 MSTORE PUSH1 0x40 DUP3 KECCAK256 PUSH1 0x1 PUSH1 0xFF NOT DUP3 SLOAD AND OR SWAP1 SSTORE CALLER SWAP2 PUSH1 0x0 DUP1 MLOAD PUSH1 0x20 PUSH3 0x2B4A DUP4 CODECOPY DUP2 MLOAD SWAP2 MSTORE DUP2 DUP1 LOG4 PUSH1 0x1 SWAP1 JUMP JUMPDEST POP SWAP1 JUMP JUMPDEST PUSH1 0x1 PUSH1 0x1 PUSH1 0xA0 SHL SUB AND PUSH1 0x0 DUP2 DUP2 MSTORE PUSH32 0x50EFBDE2D46C37E9785F1791697F77E94BB7B701E19F1930A668820722D37694 PUSH1 0x20 MSTORE PUSH1 0x40 DUP2 KECCAK256 SLOAD SWAP1 SWAP2 SWAP1 PUSH32 0xA49807205CE4D355092EF5A8A18F56E8913CF4A201FBE287825B095693C21775 SWAP1 PUSH1 0xFF AND PUSH3 0x199 JUMPI DUP1 DUP4 MSTORE PUSH1 0x1 PUSH1 0x20 MSTORE PUSH1 0x40 DUP4 KECCAK256 DUP3 DUP5 MSTORE PUSH1 0x20 MSTORE PUSH1 0x40 DUP4 KECCAK256 PUSH1 0x1 PUSH1 0xFF NOT DUP3 SLOAD AND OR SWAP1 SSTORE PUSH1 0x0 DUP1 MLOAD PUSH1 0x20 PUSH3 0x2B4A DUP4 CODECOPY DUP2 MLOAD SWAP2 MSTORE CALLER SWAP4 DUP1 LOG4 PUSH1 0x1 SWAP1 JUMP JUMPDEST POP POP SWAP1 JUMP JUMPDEST PUSH1 0x1 PUSH1 0x1 PUSH1 0xA0 SHL SUB AND PUSH1 0x0 DUP2 DUP2 MSTORE PUSH32 0x220038DD9BF29A5AA35DDE1E10C90C54E92809770D3E12470DC41D08D0241D47 PUSH1 0x20 MSTORE PUSH1 0x40 DUP2 KECCAK256 SLOAD SWAP1 SWAP2 SWAP1 PUSH32 0x8B5CE2E3163E37059F807346DAD4DD6235ED44F92DCED22992662CB45706362 SWAP1 PUSH1 0xFF AND PUSH3 0x199 JUMPI DUP1 DUP4 MSTORE PUSH1 0x1 PUSH1 0x20 MSTORE PUSH1 0x40 DUP4 KECCAK256 DUP3 DUP5 MSTORE PUSH1 0x20 MSTORE PUSH1 0x40 DUP4 KECCAK256 PUSH1 0x1 PUSH1 0xFF NOT DUP3 SLOAD AND OR SWAP1 SSTORE PUSH1 0x0 DUP1 MLOAD PUSH1 0x20 PUSH3 0x2B4A DUP4 CODECOPY DUP2 MLOAD SWAP2 MSTORE CALLER SWAP4 DUP1 LOG4 PUSH1 0x1 SWAP1 JUMP JUMPDEST PUSH1 0x1 PUSH1 0x1 PUSH1 0xA0 SHL SUB AND PUSH1 0x0 DUP2 DUP2 MSTORE PUSH32 0x5484FCF1C8B2251E43FE4C0EAE0AE144BBE4AE3C104340C02444D8C4A0739A72 PUSH1 0x20 MSTORE PUSH1 0x40 DUP2 KECCAK256 SLOAD SWAP1 SWAP2 SWAP1 PUSH32 0x5297E68F3A27F04914F2C6DB0AD63B5E5C8173CEBCC1A5341DF045CF6DAD7ADC SWAP1 PUSH1 0xFF AND PUSH3 0x199 JUMPI DUP1 DUP4 MSTORE PUSH1 0x1 PUSH1 0x20 MSTORE PUSH1 0x40 DUP4 KECCAK256 DUP3 DUP5 MSTORE PUSH1 0x20 MSTORE PUSH1 0x40 DUP4 KECCAK256 PUSH1 0x1 PUSH1 0xFF NOT DUP3 SLOAD AND OR SWAP1 SSTORE PUSH1 0x0 DUP1 MLOAD PUSH1 0x20 PUSH3 0x2B4A DUP4 CODECOPY DUP2 MLOAD SWAP2 MSTORE CALLER SWAP4 DUP1 LOG4 PUSH1 0x1 SWAP1 JUMP INVALID PUSH1 0x80 DUP1 PUSH1 0x40 MSTORE PUSH1 0x4 CALLDATASIZE LT ISZERO PUSH2 0x1D JUMPI JUMPDEST POP CALLDATASIZE ISZERO PUSH2 0x1B JUMPI PUSH1 0x0 DUP1 REVERT JUMPDEST STOP JUMPDEST PUSH1 0x0 CALLDATALOAD PUSH1 0xE0 SHR SWAP1 DUP2 PUSH4 0x1FFC9A7 EQ PUSH2 0x1D02 JUMPI POP DUP1 PUSH4 0x10184161 EQ PUSH2 0x1A6D JUMPI DUP1 PUSH4 0x175FA636 EQ PUSH2 0x1A4F JUMPI DUP1 PUSH4 0x248A9CA3 EQ PUSH2 0x1A20 JUMPI DUP1 PUSH4 0x2F2FF15D EQ PUSH2 0x19E1 JUMPI DUP1 PUSH4 0x3026785F EQ PUSH2 0x1993 JUMPI DUP1 PUSH4 0x36568ABE EQ PUSH2 0x194C JUMPI DUP1 PUSH4 0x3F4BA83A EQ PUSH2 0x18E2 JUMPI DUP1 PUSH4 0x478E285C EQ PUSH2 0x14FF JUMPI DUP1 PUSH4 0x4E6AA7B9 EQ PUSH2 0xCCC JUMPI DUP1 PUSH4 0x577A1B92 EQ PUSH2 0xC74 JUMPI DUP1 PUSH4 0x5C975ABB EQ PUSH2 0xC51 JUMPI DUP1 PUSH4 0x5FD8C710 EQ PUSH2 0xB7C JUMPI DUP1 PUSH4 0x72E69752 EQ PUSH2 0x81F JUMPI DUP1 PUSH4 0x75B238FC EQ PUSH2 0x7E4 JUMPI DUP1 PUSH4 0x8456CB59 EQ PUSH2 0x78A JUMPI DUP1 PUSH4 0x8B38B514 EQ PUSH2 0x74F JUMPI DUP1 PUSH4 0x90A4B162 EQ PUSH2 0x6C0 JUMPI DUP1 PUSH4 0x91D14854 EQ PUSH2 0x673 JUMPI DUP1 PUSH4 0xA217FDDF EQ PUSH2 0x657 JUMPI DUP1 PUSH4 0xB31D2117 EQ PUSH2 0x5BE JUMPI DUP1 PUSH4 0xB3DD697B EQ PUSH2 0x4B2 JUMPI DUP1 PUSH4 0xBEEE5EB7 EQ PUSH2 0x349 JUMPI DUP1 PUSH4 0xC501651A EQ PUSH2 0x25F JUMPI DUP1 PUSH4 0xC9E9C641 EQ PUSH2 0x241 JUMPI DUP1 PUSH4 0xD547741F EQ PUSH2 0x202 JUMPI DUP1 PUSH4 0xDFE6B5D6 EQ PUSH2 0x1C7 JUMPI DUP1 PUSH4 0xE9E3E15C EQ PUSH2 0x1A9 JUMPI PUSH4 0xFD5F48C5 EQ PUSH2 0x169 JUMPI CODESIZE PUSH2 0xF JUMP JUMPDEST CALLVALUE PUSH2 0x1A4 JUMPI PUSH1 0x0 CALLDATASIZE PUSH1 0x3 NOT ADD SLT PUSH2 0x1A4 JUMPI PUSH1 0x20 PUSH1 0x40 MLOAD PUSH32 0x8B5CE2E3163E37059F807346DAD4DD6235ED44F92DCED22992662CB45706362 DUP2 MSTORE RETURN JUMPDEST PUSH1 0x0 DUP1 REVERT JUMPDEST CALLVALUE PUSH2 0x1A4 JUMPI PUSH1 0x0 CALLDATASIZE PUSH1 0x3 NOT ADD SLT PUSH2 0x1A4 JUMPI PUSH1 0x20 PUSH1 0xA SLOAD PUSH1 0x40 MLOAD SWAP1 DUP2 MSTORE RETURN JUMPDEST CALLVALUE PUSH2 0x1A4 JUMPI PUSH1 0x0 CALLDATASIZE PUSH1 0x3 NOT ADD SLT PUSH2 0x1A4 JUMPI PUSH1 0xA0 PUSH1 0x8 SLOAD PUSH1 0x9 SLOAD PUSH1 0x40 MLOAD SWAP2 DUP3 MSTORE PUSH1 0x20 DUP3 ADD MSTORE PUSH1 0x0 PUSH1 0x40 DUP3 ADD MSTORE PUSH1 0x0 PUSH1 0x60 DUP3 ADD MSTORE PUSH1 0x0 PUSH1 0x80 DUP3 ADD MSTORE RETURN JUMPDEST CALLVALUE PUSH2 0x1A4 JUMPI PUSH1 0x40 CALLDATASIZE PUSH1 0x3 NOT ADD SLT PUSH2 0x1A4 JUMPI PUSH2 0x1B PUSH1 0x4 CALLDATALOAD PUSH2 0x221 PUSH2 0x1E70 JUMP JUMPDEST SWAP1 DUP1 PUSH1 0x0 MSTORE PUSH1 0x1 PUSH1 0x20 MSTORE PUSH2 0x23C PUSH1 0x1 PUSH1 0x40 PUSH1 0x0 KECCAK256 ADD SLOAD PUSH2 0x2156 JUMP JUMPDEST PUSH2 0x21FC JUMP JUMPDEST CALLVALUE PUSH2 0x1A4 JUMPI PUSH1 0x0 CALLDATASIZE PUSH1 0x3 NOT ADD SLT PUSH2 0x1A4 JUMPI PUSH1 0x20 PUSH1 0xB SLOAD PUSH1 0x40 MLOAD SWAP1 DUP2 MSTORE RETURN JUMPDEST CALLVALUE PUSH2 0x1A4 JUMPI PUSH1 0x60 CALLDATASIZE PUSH1 0x3 NOT ADD SLT PUSH2 0x1A4 JUMPI PUSH1 0x24 CALLDATALOAD PUSH1 0x4 CALLDATALOAD PUSH2 0x27E PUSH2 0x20FA JUMP JUMPDEST DUP1 ISZERO PUSH2 0x2F3 JUMPI DUP2 ISZERO PUSH2 0x298 JUMPI PUSH1 0xA SSTORE PUSH1 0xB SSTORE PUSH1 0x44 CALLDATALOAD PUSH1 0xC SSTORE STOP JUMPDEST PUSH1 0x40 MLOAD PUSH3 0x461BCD PUSH1 0xE5 SHL DUP2 MSTORE PUSH1 0x20 PUSH1 0x4 DUP3 ADD MSTORE PUSH1 0x2D PUSH1 0x24 DUP3 ADD MSTORE PUSH32 0x4D617820646F63756D656E7473207065722075736572206D7573742062652067 PUSH1 0x44 DUP3 ADD MSTORE PUSH13 0x726561746572207468616E203 PUSH1 0x9C SHL PUSH1 0x64 DUP3 ADD MSTORE PUSH1 0x84 SWAP1 REVERT JUMPDEST PUSH1 0x40 MLOAD PUSH3 0x461BCD PUSH1 0xE5 SHL DUP2 MSTORE PUSH1 0x20 PUSH1 0x4 DUP3 ADD MSTORE PUSH1 0x28 PUSH1 0x24 DUP3 ADD MSTORE PUSH32 0x4D6178206D657461646174612073697A65206D75737420626520677265617465 PUSH1 0x44 DUP3 ADD MSTORE PUSH8 0x72207468616E203 PUSH1 0xC4 SHL PUSH1 0x64 DUP3 ADD MSTORE PUSH1 0x84 SWAP1 REVERT JUMPDEST CALLVALUE PUSH2 0x1A4 JUMPI PUSH1 0x20 CALLDATASIZE PUSH1 0x3 NOT ADD SLT PUSH2 0x1A4 JUMPI PUSH1 0x4 CALLDATALOAD PUSH1 0x1 PUSH1 0x1 PUSH1 0x40 SHL SUB DUP2 GT PUSH2 0x1A4 JUMPI PUSH1 0x20 PUSH2 0x37E PUSH2 0x3AF SWAP3 CALLDATASIZE SWAP1 PUSH1 0x4 ADD PUSH2 0x1DE3 JUMP JUMPDEST PUSH2 0x38B PUSH1 0x40 DUP3 MLOAD EQ PUSH2 0x2273 JUMP JUMPDEST PUSH2 0x39C PUSH2 0x397 DUP3 PUSH2 0x2784 JUMP JUMPDEST PUSH2 0x22BF JUMP JUMPDEST DUP2 PUSH1 0x40 MLOAD SWAP4 DUP3 DUP6 DUP1 SWAP5 MLOAD SWAP4 DUP5 SWAP3 ADD PUSH2 0x1E9C JUMP JUMPDEST DUP2 ADD PUSH1 0x3 DUP2 MSTORE SUB ADD SWAP1 KECCAK256 PUSH1 0x40 MLOAD PUSH2 0x3C5 DUP2 PUSH2 0x1D70 JUMP JUMPDEST PUSH2 0x3CE DUP3 PUSH2 0x1FF8 JUMP JUMPDEST DUP2 MSTORE PUSH1 0x1 DUP3 ADD SLOAD SWAP2 PUSH1 0x20 DUP3 ADD SWAP3 DUP4 MSTORE PUSH2 0x3E9 PUSH1 0x2 DUP3 ADD PUSH2 0x1FF8 JUMP JUMPDEST SWAP1 PUSH1 0x40 DUP4 ADD SWAP2 DUP3 MSTORE PUSH2 0x4A3 PUSH1 0x3 DUP3 ADD SLOAD SWAP3 PUSH1 0x60 DUP6 ADD PUSH1 0xFF DUP6 AND ISZERO ISZERO DUP2 MSTORE PUSH1 0xFF PUSH1 0x80 DUP8 ADD SWAP6 PUSH1 0x8 SHR AND ISZERO ISZERO DUP6 MSTORE PUSH2 0x421 PUSH1 0x4 DUP6 ADD PUSH2 0x1FF8 JUMP JUMPDEST PUSH1 0xA0 DUP8 ADD MSTORE PUSH1 0x5 DUP5 ADD SLOAD PUSH1 0xC0 DUP8 ADD MSTORE PUSH1 0x1 DUP1 PUSH1 0xA0 SHL SUB DUP1 PUSH1 0x6 DUP7 ADD SLOAD AND PUSH1 0xE0 DUP9 ADD MSTORE PUSH1 0x7 DUP6 ADD SLOAD AND PUSH2 0x100 DUP8 ADD MSTORE PUSH1 0x9 PUSH1 0x8 DUP6 ADD SLOAD SWAP5 DUP6 PUSH2 0x120 DUP10 ADD MSTORE ADD SLOAD PUSH2 0x140 DUP8 ADD MSTORE MLOAD ISZERO ISZERO SWAP5 MLOAD SWAP6 MLOAD SWAP1 MLOAD SWAP4 MLOAD ISZERO ISZERO SWAP4 PUSH2 0x490 PUSH1 0x40 MLOAD SWAP8 DUP9 SWAP8 DUP9 MSTORE PUSH1 0xC0 PUSH1 0x20 DUP10 ADD MSTORE PUSH1 0xC0 DUP9 ADD SWAP1 PUSH2 0x1F21 JUMP JUMPDEST SWAP2 PUSH1 0x40 DUP8 ADD MSTORE DUP6 DUP3 SUB PUSH1 0x60 DUP8 ADD MSTORE PUSH2 0x1F21 JUMP JUMPDEST SWAP2 PUSH1 0x80 DUP5 ADD MSTORE PUSH1 0xA0 DUP4 ADD MSTORE SUB SWAP1 RETURN JUMPDEST CALLVALUE PUSH2 0x1A4 JUMPI PUSH1 0x20 CALLDATASIZE PUSH1 0x3 NOT ADD SLT PUSH2 0x1A4 JUMPI PUSH1 0x4 CALLDATALOAD PUSH1 0x1 PUSH1 0x1 PUSH1 0x40 SHL SUB DUP2 GT PUSH2 0x1A4 JUMPI PUSH2 0x56A PUSH2 0x4EB PUSH1 0x20 PUSH2 0x39C DUP2 SWAP5 CALLDATASIZE SWAP1 PUSH1 0x4 ADD PUSH2 0x1DE3 JUMP JUMPDEST DUP2 ADD PUSH1 0x3 DUP2 MSTORE SUB ADD SWAP1 KECCAK256 PUSH2 0x4FE DUP2 PUSH2 0x1FF8 JUMP JUMPDEST SWAP1 PUSH1 0x1 DUP2 ADD SLOAD SWAP1 PUSH2 0x511 PUSH1 0x2 DUP3 ADD PUSH2 0x1FF8 JUMP JUMPDEST PUSH1 0x3 DUP3 ADD SLOAD SWAP4 PUSH2 0x59D PUSH2 0x526 PUSH1 0x4 DUP6 ADD PUSH2 0x1FF8 JUMP JUMPDEST SWAP6 PUSH1 0x5 DUP6 ADD SLOAD SWAP7 PUSH1 0xFF PUSH2 0x57A PUSH1 0x1 DUP1 PUSH1 0xA0 SHL SUB SWAP6 DUP7 PUSH1 0x6 DUP11 ADD SLOAD AND SWAP7 PUSH1 0x7 DUP11 ADD SLOAD AND SWAP8 PUSH1 0x9 PUSH1 0x8 DUP12 ADD SLOAD SWAP11 ADD SLOAD SWAP11 PUSH1 0x40 MLOAD SWAP15 DUP16 SWAP15 DUP16 SWAP5 PUSH2 0x160 DUP1 DUP8 MSTORE DUP7 ADD SWAP1 PUSH2 0x1F21 JUMP JUMPDEST SWAP4 ADD MSTORE DUP13 DUP3 SUB PUSH1 0x40 DUP15 ADD MSTORE PUSH2 0x1F21 JUMP JUMPDEST SWAP3 DUP2 DUP2 AND ISZERO ISZERO PUSH1 0x60 DUP13 ADD MSTORE PUSH1 0x8 SHR AND ISZERO ISZERO PUSH1 0x80 DUP11 ADD MSTORE DUP9 DUP3 SUB PUSH1 0xA0 DUP11 ADD MSTORE PUSH2 0x1F21 JUMP JUMPDEST SWAP5 PUSH1 0xC0 DUP8 ADD MSTORE PUSH1 0xE0 DUP7 ADD MSTORE PUSH2 0x100 DUP6 ADD MSTORE PUSH2 0x120 DUP5 ADD MSTORE PUSH2 0x140 DUP4 ADD MSTORE SUB SWAP1 RETURN JUMPDEST CALLVALUE PUSH2 0x1A4 JUMPI PUSH1 0x40 CALLDATASIZE PUSH1 0x3 NOT ADD SLT PUSH2 0x1A4 JUMPI PUSH1 0x24 CALLDATALOAD PUSH1 0x4 CALLDATALOAD PUSH1 0x0 MSTORE PUSH1 0x5 PUSH1 0x20 MSTORE PUSH1 0x40 PUSH1 0x0 KECCAK256 SWAP1 DUP2 SLOAD DUP2 LT ISZERO PUSH2 0x1A4 JUMPI PUSH2 0x5F5 SWAP2 PUSH2 0x1FA2 JUMP JUMPDEST POP DUP1 SLOAD PUSH2 0x604 PUSH1 0x1 DUP4 ADD PUSH2 0x1FF8 JUMP JUMPDEST SWAP2 PUSH2 0x64D PUSH2 0x614 PUSH1 0x2 DUP4 ADD PUSH2 0x1FF8 JUMP JUMPDEST SWAP2 PUSH1 0x3 PUSH1 0x1 DUP1 PUSH1 0xA0 SHL SUB SWAP2 ADD SLOAD AND SWAP2 PUSH2 0x63F PUSH1 0x40 MLOAD SWAP6 DUP7 SWAP6 DUP7 MSTORE PUSH1 0x80 PUSH1 0x20 DUP8 ADD MSTORE PUSH1 0x80 DUP7 ADD SWAP1 PUSH2 0x1F21 JUMP JUMPDEST SWAP1 DUP5 DUP3 SUB PUSH1 0x40 DUP7 ADD MSTORE PUSH2 0x1F21 JUMP JUMPDEST SWAP1 PUSH1 0x60 DUP4 ADD MSTORE SUB SWAP1 RETURN JUMPDEST CALLVALUE PUSH2 0x1A4 JUMPI PUSH1 0x0 CALLDATASIZE PUSH1 0x3 NOT ADD SLT PUSH2 0x1A4 JUMPI PUSH1 0x20 PUSH1 0x40 MLOAD PUSH1 0x0 DUP2 MSTORE RETURN JUMPDEST CALLVALUE PUSH2 0x1A4 JUMPI PUSH1 0x40 CALLDATASIZE PUSH1 0x3 NOT ADD SLT PUSH2 0x1A4 JUMPI PUSH2 0x68C PUSH2 0x1E70 JUMP JUMPDEST PUSH1 0x4 CALLDATALOAD PUSH1 0x0 MSTORE PUSH1 0x1 PUSH1 0x20 MSTORE PUSH1 0x40 PUSH1 0x0 KECCAK256 SWAP1 PUSH1 0x1 DUP1 PUSH1 0xA0 SHL SUB AND PUSH1 0x0 MSTORE PUSH1 0x20 MSTORE PUSH1 0x20 PUSH1 0xFF PUSH1 0x40 PUSH1 0x0 KECCAK256 SLOAD AND PUSH1 0x40 MLOAD SWAP1 ISZERO ISZERO DUP2 MSTORE RETURN JUMPDEST CALLVALUE PUSH2 0x1A4 JUMPI PUSH1 0x20 DUP1 PUSH1 0x3 NOT CALLDATASIZE ADD SLT PUSH2 0x1A4 JUMPI PUSH1 0x1 PUSH1 0x1 PUSH1 0xA0 SHL SUB PUSH2 0x6E2 PUSH2 0x1E86 JUMP JUMPDEST AND PUSH1 0x0 MSTORE PUSH1 0x6 DUP2 MSTORE PUSH1 0x40 PUSH1 0x0 KECCAK256 SWAP1 PUSH1 0x40 MLOAD DUP1 DUP4 DUP4 DUP3 SWAP6 SLOAD SWAP4 DUP5 DUP2 MSTORE ADD SWAP1 PUSH1 0x0 MSTORE DUP4 PUSH1 0x0 KECCAK256 SWAP3 PUSH1 0x0 JUMPDEST DUP6 DUP3 DUP3 LT PUSH2 0x739 JUMPI POP POP POP PUSH2 0x721 SWAP3 POP SUB DUP4 PUSH2 0x1DA7 JUMP JUMPDEST PUSH2 0x735 PUSH1 0x40 MLOAD SWAP3 DUP3 DUP5 SWAP4 DUP5 MSTORE DUP4 ADD SWAP1 PUSH2 0x1EED JUMP JUMPDEST SUB SWAP1 RETURN JUMPDEST DUP6 SLOAD DUP5 MSTORE PUSH1 0x1 SWAP6 DUP7 ADD SWAP6 DUP9 SWAP6 POP SWAP4 ADD SWAP3 ADD PUSH2 0x70A JUMP JUMPDEST CALLVALUE PUSH2 0x1A4 JUMPI PUSH1 0x0 CALLDATASIZE PUSH1 0x3 NOT ADD SLT PUSH2 0x1A4 JUMPI PUSH1 0x20 PUSH1 0x40 MLOAD PUSH32 0x5297E68F3A27F04914F2C6DB0AD63B5E5C8173CEBCC1A5341DF045CF6DAD7ADC DUP2 MSTORE RETURN JUMPDEST CALLVALUE PUSH2 0x1A4 JUMPI PUSH1 0x0 CALLDATASIZE PUSH1 0x3 NOT ADD SLT PUSH2 0x1A4 JUMPI PUSH2 0x7A3 PUSH2 0x20FA JUMP JUMPDEST PUSH2 0x7AB PUSH2 0x261E JUMP JUMPDEST PUSH1 0x1 PUSH1 0xFF NOT PUSH1 0x2 SLOAD AND OR PUSH1 0x2 SSTORE PUSH32 0x62E78CEA01BEE320CD4E420270B5EA74000D11B0C9F74754EBDBFC544B05A258 PUSH1 0x20 PUSH1 0x40 MLOAD CALLER DUP2 MSTORE LOG1 STOP JUMPDEST CALLVALUE PUSH2 0x1A4 JUMPI PUSH1 0x0 CALLDATASIZE PUSH1 0x3 NOT ADD SLT PUSH2 0x1A4 JUMPI PUSH1 0x20 PUSH1 0x40 MLOAD PUSH32 0xA49807205CE4D355092EF5A8A18F56E8913CF4A201FBE287825B095693C21775 DUP2 MSTORE RETURN JUMPDEST CALLVALUE PUSH2 0x1A4 JUMPI PUSH1 0x20 DUP1 PUSH1 0x3 NOT CALLDATASIZE ADD SLT PUSH2 0x1A4 JUMPI PUSH1 0x4 CALLDATALOAD PUSH1 0x1 PUSH1 0x1 PUSH1 0x40 SHL SUB DUP2 GT PUSH2 0x1A4 JUMPI PUSH2 0x850 SWAP1 CALLDATASIZE SWAP1 PUSH1 0x4 ADD PUSH2 0x1DE3 JUMP JUMPDEST PUSH2 0x85D PUSH1 0x40 DUP3 MLOAD EQ PUSH2 0x2273 JUMP JUMPDEST PUSH2 0x869 PUSH2 0x397 DUP3 PUSH2 0x2784 JUMP JUMPDEST PUSH1 0x40 MLOAD SWAP1 PUSH2 0x897 PUSH1 0xFF DUP3 MLOAD SWAP4 DUP6 DUP2 DUP2 DUP7 ADD SWAP7 PUSH2 0x886 DUP2 DUP4 DUP11 PUSH2 0x1E9C JUMP JUMPDEST DUP2 ADD PUSH1 0x4 DUP2 MSTORE SUB ADD SWAP1 KECCAK256 SLOAD AND PUSH2 0x265F JUMP JUMPDEST PUSH2 0x8A9 PUSH1 0x40 MLOAD SWAP3 DUP4 SWAP3 MLOAD SWAP3 DUP4 SWAP2 PUSH2 0x1E9C JUMP JUMPDEST DUP2 ADD SWAP1 DUP3 DUP2 PUSH1 0x3 SWAP4 DUP5 DUP2 MSTORE SUB ADD SWAP1 KECCAK256 PUSH1 0x40 MLOAD PUSH2 0x8C4 DUP2 PUSH2 0x1D70 JUMP JUMPDEST PUSH2 0x8CD DUP3 PUSH2 0x1FF8 JUMP JUMPDEST DUP2 MSTORE PUSH1 0x1 SWAP2 DUP3 DUP2 ADD SLOAD DUP6 DUP4 ADD MSTORE PUSH1 0x2 SWAP4 PUSH2 0x8E8 DUP6 DUP4 ADD PUSH2 0x1FF8 JUMP JUMPDEST PUSH1 0x40 DUP5 ADD MSTORE DUP1 DUP3 ADD SLOAD SWAP2 PUSH1 0xFF PUSH1 0x60 SWAP4 DUP2 DUP2 AND ISZERO ISZERO DUP6 DUP8 ADD MSTORE PUSH1 0x8 SHR AND ISZERO ISZERO PUSH1 0x80 DUP6 ADD MSTORE PUSH2 0x917 PUSH1 0x4 DUP3 ADD PUSH2 0x1FF8 JUMP JUMPDEST PUSH1 0xA0 DUP6 ADD MSTORE PUSH1 0x5 DUP2 ADD SLOAD PUSH1 0xC0 DUP6 ADD MSTORE PUSH1 0x1 DUP1 PUSH1 0xA0 SHL SUB SWAP4 DUP5 PUSH1 0x6 DUP4 ADD SLOAD AND PUSH1 0xE0 DUP3 ADD MSTORE DUP5 PUSH1 0x7 DUP4 ADD SLOAD AND PUSH2 0x100 DUP3 ADD MSTORE PUSH2 0x140 PUSH1 0x9 PUSH1 0x8 DUP5 ADD SLOAD SWAP4 DUP5 PUSH2 0x120 DUP6 ADD MSTORE ADD SLOAD SWAP2 ADD MSTORE PUSH1 0x0 MSTORE PUSH1 0x5 DUP7 MSTORE PUSH1 0x40 PUSH1 0x0 KECCAK256 DUP1 SLOAD SWAP2 PUSH2 0x976 DUP4 PUSH2 0x270F JUMP JUMPDEST SWAP7 PUSH2 0x984 PUSH1 0x40 MLOAD SWAP9 DUP10 PUSH2 0x1DA7 JUMP JUMPDEST DUP4 DUP9 MSTORE PUSH1 0x0 SWAP3 DUP4 MSTORE DUP9 DUP4 KECCAK256 SWAP2 DUP10 DUP10 ADD JUMPDEST DUP6 DUP6 LT PUSH2 0xB27 JUMPI POP POP POP POP POP POP DUP4 MLOAD SWAP5 PUSH2 0x9AD DUP7 PUSH2 0x270F JUMP JUMPDEST SWAP5 PUSH2 0x9BB PUSH1 0x40 MLOAD SWAP7 DUP8 PUSH2 0x1DA7 JUMP JUMPDEST DUP7 DUP7 MSTORE PUSH1 0x1F NOT SWAP7 DUP8 PUSH2 0x9CC DUP3 PUSH2 0x270F JUMP JUMPDEST ADD CALLDATASIZE DUP5 DUP10 ADD CALLDATACOPY PUSH2 0x9DB DUP2 PUSH2 0x2726 JUMP JUMPDEST PUSH2 0x9E4 DUP3 PUSH2 0x2726 JUMP JUMPDEST SWAP2 PUSH2 0x9EE DUP2 PUSH2 0x270F JUMP JUMPDEST SWAP4 PUSH2 0x9FC PUSH1 0x40 MLOAD SWAP6 DUP7 PUSH2 0x1DA7 JUMP JUMPDEST DUP2 DUP6 MSTORE PUSH2 0xA08 DUP3 PUSH2 0x270F JUMP JUMPDEST DUP6 DUP8 ADD SWAP12 ADD CALLDATASIZE DUP13 CALLDATACOPY PUSH1 0x0 JUMPDEST DUP3 DUP2 LT PUSH2 0xA8F JUMPI POP POP POP DUP4 SWAP3 SWAP2 PUSH2 0xA49 PUSH2 0xA57 SWAP3 PUSH2 0xA3C PUSH1 0x40 MLOAD SWAP12 PUSH1 0x80 DUP14 MSTORE PUSH1 0x80 DUP14 ADD SWAP1 PUSH2 0x1EED JUMP JUMPDEST SWAP1 DUP12 DUP3 SUB DUP8 DUP14 ADD MSTORE PUSH2 0x1F46 JUMP JUMPDEST SWAP1 DUP10 DUP3 SUB PUSH1 0x40 DUP12 ADD MSTORE PUSH2 0x1F46 JUMP JUMPDEST SWAP4 DUP8 DUP6 SUB SWAP1 DUP9 ADD MSTORE MLOAD SWAP3 DUP4 DUP2 MSTORE ADD SWAP6 SWAP3 PUSH1 0x0 SWAP1 JUMPDEST DUP4 DUP3 LT PUSH2 0xA78 JUMPI DUP7 DUP9 SUB DUP8 RETURN JUMPDEST DUP5 MLOAD DUP2 AND DUP9 MSTORE SWAP7 DUP3 ADD SWAP7 SWAP4 DUP3 ADD SWAP4 SWAP1 DUP6 ADD SWAP1 PUSH2 0xA6B JUMP JUMPDEST DUP1 DUP12 PUSH2 0xAB1 DUP3 SWAP13 SWAP15 SWAP13 PUSH2 0xAA9 PUSH2 0xB1B SWAP6 DUP8 SWAP15 SWAP13 SWAP14 SWAP15 PUSH2 0x2770 JUMP JUMPDEST MLOAD MLOAD SWAP3 PUSH2 0x2770 JUMP JUMPDEST MSTORE DUP9 PUSH2 0xABD DUP3 DUP6 PUSH2 0x2770 JUMP JUMPDEST MLOAD ADD MLOAD PUSH2 0xACA DUP3 DUP8 PUSH2 0x2770 JUMP JUMPDEST MSTORE PUSH2 0xAD5 DUP2 DUP7 PUSH2 0x2770 JUMP JUMPDEST POP PUSH1 0x40 PUSH2 0xAE2 DUP3 DUP6 PUSH2 0x2770 JUMP JUMPDEST MLOAD ADD MLOAD PUSH2 0xAEF DUP3 DUP9 PUSH2 0x2770 JUMP JUMPDEST MSTORE PUSH2 0xAFA DUP2 DUP8 PUSH2 0x2770 JUMP JUMPDEST POP DUP8 DUP11 PUSH2 0xB07 DUP4 DUP7 PUSH2 0x2770 JUMP JUMPDEST MLOAD ADD MLOAD AND PUSH2 0xB15 DUP3 DUP10 PUSH2 0x2770 JUMP JUMPDEST MSTORE PUSH2 0x234C JUMP JUMPDEST SWAP11 SWAP9 SWAP11 SWAP8 SWAP7 SWAP6 SWAP8 PUSH2 0xA13 JUMP JUMPDEST SWAP8 PUSH1 0x4 DUP12 DUP3 SWAP13 SWAP9 SWAP10 SWAP11 PUSH1 0x40 MLOAD PUSH2 0xB3C DUP2 PUSH2 0x1D55 JUMP JUMPDEST DUP8 SLOAD DUP2 MSTORE PUSH2 0xB4B DUP6 DUP10 ADD PUSH2 0x1FF8 JUMP JUMPDEST DUP4 DUP3 ADD MSTORE PUSH2 0xB5A DUP8 DUP10 ADD PUSH2 0x1FF8 JUMP JUMPDEST PUSH1 0x40 DUP3 ADD MSTORE DUP13 DUP7 DUP10 ADD SLOAD AND DUP13 DUP3 ADD MSTORE DUP2 MSTORE ADD SWAP5 ADD SWAP5 ADD SWAP4 SWAP3 SWAP10 SWAP8 SWAP7 SWAP6 SWAP10 PUSH2 0x994 JUMP JUMPDEST CALLVALUE PUSH2 0x1A4 JUMPI PUSH1 0x0 CALLDATASIZE PUSH1 0x3 NOT ADD SLT PUSH2 0x1A4 JUMPI PUSH2 0xB95 PUSH2 0x20FA JUMP JUMPDEST SELFBALANCE DUP1 ISZERO PUSH2 0xC13 JUMPI PUSH1 0x0 DUP1 DUP1 DUP1 SWAP4 CALLER GAS CALL RETURNDATASIZE ISZERO PUSH2 0xC0E JUMPI RETURNDATASIZE PUSH2 0xBB5 DUP2 PUSH2 0x1DC8 JUMP JUMPDEST SWAP1 PUSH2 0xBC3 PUSH1 0x40 MLOAD SWAP3 DUP4 PUSH2 0x1DA7 JUMP JUMPDEST DUP2 MSTORE PUSH1 0x0 PUSH1 0x20 RETURNDATASIZE SWAP3 ADD RETURNDATACOPY JUMPDEST ISZERO PUSH2 0xBD5 JUMPI STOP JUMPDEST PUSH1 0x40 MLOAD PUSH3 0x461BCD PUSH1 0xE5 SHL DUP2 MSTORE PUSH1 0x20 PUSH1 0x4 DUP3 ADD MSTORE PUSH1 0x11 PUSH1 0x24 DUP3 ADD MSTORE PUSH17 0x15DA5D1A191C985DD85B0819985A5B1959 PUSH1 0x7A SHL PUSH1 0x44 DUP3 ADD MSTORE PUSH1 0x64 SWAP1 REVERT JUMPDEST PUSH2 0xBCE JUMP JUMPDEST PUSH1 0x40 MLOAD PUSH3 0x461BCD PUSH1 0xE5 SHL DUP2 MSTORE PUSH1 0x20 PUSH1 0x4 DUP3 ADD MSTORE PUSH1 0x16 PUSH1 0x24 DUP3 ADD MSTORE PUSH22 0x4E6F2062616C616E636520746F207769746864726177 PUSH1 0x50 SHL PUSH1 0x44 DUP3 ADD MSTORE PUSH1 0x64 SWAP1 REVERT JUMPDEST CALLVALUE PUSH2 0x1A4 JUMPI PUSH1 0x0 CALLDATASIZE PUSH1 0x3 NOT ADD SLT PUSH2 0x1A4 JUMPI PUSH1 0x20 PUSH1 0xFF PUSH1 0x2 SLOAD AND PUSH1 0x40 MLOAD SWAP1 ISZERO ISZERO DUP2 MSTORE RETURN JUMPDEST CALLVALUE PUSH2 0x1A4 JUMPI PUSH1 0x40 CALLDATASIZE PUSH1 0x3 NOT ADD SLT PUSH2 0x1A4 JUMPI PUSH2 0xC8D PUSH2 0x1E86 JUMP JUMPDEST PUSH1 0x1 PUSH1 0x1 PUSH1 0xA0 SHL SUB AND PUSH1 0x0 SWAP1 DUP2 MSTORE PUSH1 0x6 PUSH1 0x20 MSTORE PUSH1 0x40 SWAP1 KECCAK256 DUP1 SLOAD PUSH1 0x24 CALLDATALOAD SWAP2 SWAP1 DUP3 LT ISZERO PUSH2 0x1A4 JUMPI PUSH1 0x20 SWAP2 PUSH2 0xCBE SWAP2 PUSH2 0x1EBF JUMP JUMPDEST SWAP1 SLOAD PUSH1 0x40 MLOAD SWAP2 PUSH1 0x3 SHL SHR DUP2 MSTORE RETURN JUMPDEST PUSH1 0x60 CALLDATASIZE PUSH1 0x3 NOT ADD SLT PUSH2 0x1A4 JUMPI PUSH1 0x4 CALLDATALOAD PUSH1 0x1 PUSH1 0x1 PUSH1 0x40 SHL SUB DUP2 GT PUSH2 0x1A4 JUMPI PUSH2 0xCF7 SWAP1 CALLDATASIZE SWAP1 PUSH1 0x4 ADD PUSH2 0x1DE3 JUMP JUMPDEST PUSH1 0x24 CALLDATALOAD PUSH1 0x1 PUSH1 0x1 PUSH1 0x40 SHL SUB DUP2 GT PUSH2 0x1A4 JUMPI PUSH2 0xD16 SWAP1 CALLDATASIZE SWAP1 PUSH1 0x4 ADD PUSH2 0x1DE3 JUMP JUMPDEST PUSH1 0x44 SWAP1 DUP2 CALLDATALOAD PUSH1 0x1 PUSH1 0x1 PUSH1 0x40 SHL SUB DUP2 GT PUSH2 0x1A4 JUMPI PUSH2 0xD37 SWAP1 CALLDATASIZE SWAP1 PUSH1 0x4 ADD PUSH2 0x1DE3 JUMP JUMPDEST SWAP2 PUSH2 0xD40 PUSH2 0x263C JUMP JUMPDEST PUSH2 0xD48 PUSH2 0x261E JUMP JUMPDEST PUSH2 0xD50 PUSH2 0x209E JUMP JUMPDEST PUSH2 0xD5D PUSH1 0x40 DUP6 MLOAD EQ PUSH2 0x2273 JUMP JUMPDEST PUSH2 0xD69 PUSH2 0x397 DUP6 PUSH2 0x2784 JUMP JUMPDEST PUSH1 0xA DUP3 MLOAD LT PUSH2 0x14C6 JUMPI PUSH1 0xFF DUP3 MLOAD GT PUSH2 0x148E JUMPI PUSH2 0xD8A DUP4 MLOAD PUSH1 0xA SLOAD LT ISZERO PUSH2 0x230B JUMP JUMPDEST PUSH1 0xFF PUSH1 0x40 MLOAD PUSH1 0x20 DUP2 DUP8 MLOAD PUSH2 0xDA1 DUP2 DUP4 DUP6 DUP13 ADD PUSH2 0x1E9C JUMP JUMPDEST DUP2 ADD PUSH1 0x4 DUP2 MSTORE SUB ADD SWAP1 KECCAK256 SLOAD AND PUSH2 0x144A JUMPI PUSH1 0xC SLOAD CALLVALUE LT PUSH2 0x1406 JUMPI CALLER PUSH1 0x0 MSTORE PUSH1 0x6 PUSH1 0x20 MSTORE PUSH1 0x40 PUSH1 0x0 KECCAK256 SLOAD PUSH1 0xB SLOAD GT ISZERO PUSH2 0x13C2 JUMPI POP PUSH2 0xDDE PUSH1 0x7 SLOAD PUSH2 0x234C JUMP JUMPDEST SWAP3 DUP4 PUSH1 0x7 SSTORE PUSH1 0x40 MLOAD PUSH2 0xDEF DUP2 PUSH2 0x1D70 JUMP JUMPDEST DUP3 DUP2 MSTORE TIMESTAMP PUSH1 0x20 DUP3 ADD MSTORE DUP4 PUSH1 0x40 DUP3 ADD MSTORE PUSH1 0x1 PUSH1 0x60 DUP3 ADD MSTORE PUSH1 0x0 PUSH1 0x80 DUP3 ADD MSTORE PUSH1 0x40 MLOAD DUP1 PUSH1 0x20 DUP2 ADD LT PUSH1 0x1 PUSH1 0x1 PUSH1 0x40 SHL SUB PUSH1 0x20 DUP4 ADD GT OR PUSH2 0x114D JUMPI PUSH1 0x20 DUP2 ADD PUSH1 0x40 MSTORE PUSH1 0x0 DUP2 MSTORE PUSH1 0xA0 DUP3 ADD MSTORE PUSH1 0x0 PUSH1 0xC0 DUP3 ADD MSTORE CALLER PUSH1 0xE0 DUP3 ADD MSTORE PUSH1 0x0 PUSH2 0x100 DUP3 ADD MSTORE DUP5 PUSH2 0x120 DUP3 ADD MSTORE PUSH1 0x1 PUSH2 0x140 DUP3 ADD MSTORE PUSH1 0x40 MLOAD PUSH1 0x20 DUP2 DUP5 MLOAD PUSH2 0xE70 DUP2 DUP4 DUP6 DUP10 ADD PUSH2 0x1E9C JUMP JUMPDEST PUSH1 0x3 DUP2 DUP4 ADD MSTORE DUP2 ADD SUB ADD SWAP1 KECCAK256 SWAP1 DUP1 MLOAD DUP1 MLOAD SWAP1 PUSH1 0x1 PUSH1 0x1 PUSH1 0x40 SHL SUB DUP3 GT PUSH2 0x114D JUMPI DUP2 SWAP1 PUSH2 0xE9C DUP6 SLOAD PUSH2 0x1FBE JUMP JUMPDEST PUSH1 0x1F DUP2 GT PUSH2 0x1372 JUMPI JUMPDEST POP PUSH1 0x20 SWAP1 PUSH1 0x1F DUP4 GT PUSH1 0x1 EQ PUSH2 0x1306 JUMPI PUSH1 0x0 SWAP3 PUSH2 0x12FB JUMPI JUMPDEST POP POP DUP2 PUSH1 0x1 SHL SWAP2 PUSH1 0x0 NOT SWAP1 PUSH1 0x3 SHL SHR NOT AND OR DUP3 SSTORE JUMPDEST PUSH1 0x20 DUP2 ADD MLOAD PUSH1 0x1 DUP4 ADD SSTORE PUSH1 0x40 DUP2 ADD MLOAD DUP1 MLOAD SWAP1 PUSH1 0x1 PUSH1 0x1 PUSH1 0x40 SHL SUB DUP3 GT PUSH2 0x114D JUMPI DUP2 SWAP1 PUSH2 0xF00 PUSH1 0x2 DUP7 ADD SLOAD PUSH2 0x1FBE JUMP JUMPDEST PUSH1 0x1F DUP2 GT PUSH2 0x12A8 JUMPI JUMPDEST POP PUSH1 0x20 SWAP1 PUSH1 0x1F DUP4 GT PUSH1 0x1 EQ PUSH2 0x1236 JUMPI PUSH1 0x0 SWAP3 PUSH2 0x122B JUMPI JUMPDEST POP POP DUP2 PUSH1 0x1 SHL SWAP2 PUSH1 0x0 NOT SWAP1 PUSH1 0x3 SHL SHR NOT AND OR PUSH1 0x2 DUP4 ADD SSTORE JUMPDEST PUSH1 0x3 DUP3 ADD PUSH1 0x60 DUP3 ADD MLOAD ISZERO ISZERO DUP2 SLOAD PUSH1 0xFF PUSH2 0xFF00 PUSH1 0x80 DUP7 ADD MLOAD ISZERO ISZERO PUSH1 0x8 SHL AND SWAP3 AND SWAP1 PUSH2 0xFFFF NOT AND OR OR SWAP1 SSTORE PUSH1 0xA0 DUP2 ADD MLOAD DUP1 MLOAD SWAP1 PUSH1 0x1 PUSH1 0x1 PUSH1 0x40 SHL SUB DUP3 GT PUSH2 0x114D JUMPI PUSH2 0xF84 PUSH1 0x4 DUP6 ADD SLOAD PUSH2 0x1FBE JUMP JUMPDEST PUSH1 0x1F DUP2 GT PUSH2 0x11E4 JUMPI JUMPDEST POP PUSH1 0x20 SWAP1 PUSH1 0x1F DUP4 GT PUSH1 0x1 EQ PUSH2 0x116E JUMPI SWAP2 DUP1 PUSH1 0x9 SWAP5 SWAP3 PUSH2 0x140 SWAP5 PUSH1 0x0 SWAP3 PUSH2 0x1163 JUMPI JUMPDEST POP POP DUP2 PUSH1 0x1 SHL SWAP2 PUSH1 0x0 NOT SWAP1 PUSH1 0x3 SHL SHR NOT AND OR PUSH1 0x4 DUP6 ADD SSTORE JUMPDEST PUSH1 0xC0 DUP2 ADD MLOAD PUSH1 0x5 DUP6 ADD SSTORE PUSH1 0x6 DUP5 ADD PUSH1 0x1 DUP1 PUSH1 0xA0 SHL SUB SWAP1 DUP2 PUSH1 0xE0 DUP5 ADD MLOAD AND SWAP1 PUSH1 0x1 PUSH1 0x1 PUSH1 0x60 SHL SUB PUSH1 0xA0 SHL SWAP2 DUP3 DUP3 SLOAD AND OR SWAP1 SSTORE PUSH1 0x7 DUP7 ADD SWAP2 PUSH2 0x100 DUP5 ADD MLOAD AND SWAP1 DUP3 SLOAD AND OR SWAP1 SSTORE PUSH2 0x120 DUP2 ADD MLOAD PUSH1 0x8 DUP6 ADD SSTORE ADD MLOAD SWAP2 ADD SSTORE PUSH1 0x40 MLOAD PUSH1 0x20 DUP2 DUP4 MLOAD PUSH2 0x102F DUP2 DUP4 DUP6 DUP9 ADD PUSH2 0x1E9C JUMP JUMPDEST DUP2 ADD PUSH1 0x4 DUP2 MSTORE SUB ADD SWAP1 KECCAK256 PUSH1 0x1 PUSH1 0xFF NOT DUP3 SLOAD AND OR SWAP1 SSTORE CALLER PUSH1 0x0 MSTORE PUSH1 0x6 PUSH1 0x20 MSTORE PUSH1 0x40 PUSH1 0x0 KECCAK256 DUP1 SLOAD PUSH1 0x1 PUSH1 0x40 SHL DUP2 LT ISZERO PUSH2 0x114D JUMPI PUSH32 0x55C2EA922C3A5FD1509D0C21DC15B4BD366D5F3ACA799DF557C19C1DAE262572 SWAP3 PUSH2 0x1098 DUP3 PUSH2 0x111E SWAP5 PUSH1 0x1 PUSH2 0x1118 SWAP6 ADD DUP2 SSTORE PUSH2 0x1EBF JUMP JUMPDEST DUP2 SLOAD SWAP1 PUSH1 0x3 SHL SWAP1 DUP10 DUP3 SHL SWAP2 PUSH1 0x0 NOT SWAP1 SHL NOT AND OR SWAP1 SSTORE DUP7 PUSH1 0x0 MSTORE PUSH1 0x5 PUSH1 0x20 MSTORE PUSH2 0x1105 PUSH1 0x40 PUSH1 0x0 KECCAK256 PUSH1 0x40 MLOAD SWAP1 PUSH2 0x10CB DUP3 PUSH2 0x1D55 JUMP JUMPDEST TIMESTAMP DUP3 MSTORE PUSH1 0x40 MLOAD PUSH2 0x10DA DUP2 PUSH2 0x1D8C JUMP JUMPDEST PUSH1 0x8 DUP2 MSTORE PUSH8 0x105390D213D49151 PUSH1 0xC2 SHL PUSH1 0x20 DUP3 ADD MSTORE PUSH1 0x20 DUP4 ADD MSTORE DUP9 PUSH1 0x40 DUP4 ADD MSTORE CALLER PUSH1 0x60 DUP4 ADD MSTORE PUSH2 0x2371 JUMP JUMPDEST PUSH2 0x1110 PUSH1 0x8 SLOAD PUSH2 0x234C JUMP JUMPDEST PUSH1 0x8 SSTORE PUSH2 0x25FE JUMP JUMPDEST SWAP3 PUSH2 0x25FE JUMP JUMPDEST SWAP3 PUSH2 0x113A PUSH1 0x40 MLOAD SWAP2 TIMESTAMP DUP4 MSTORE PUSH1 0x60 PUSH1 0x20 DUP5 ADD MSTORE PUSH1 0x60 DUP4 ADD SWAP1 PUSH2 0x1F21 JUMP JUMPDEST SWAP5 PUSH1 0x40 DUP3 ADD MSTORE DUP1 CALLER SWAP6 SUB SWAP1 LOG4 PUSH1 0x1 PUSH1 0x0 SSTORE STOP JUMPDEST PUSH4 0x4E487B71 PUSH1 0xE0 SHL PUSH1 0x0 MSTORE PUSH1 0x41 PUSH1 0x4 MSTORE PUSH1 0x24 PUSH1 0x0 REVERT JUMPDEST ADD MLOAD SWAP1 POP DUP11 DUP1 PUSH2 0xFAE JUMP JUMPDEST SWAP1 PUSH1 0x4 DUP6 ADD PUSH1 0x0 MSTORE PUSH1 0x20 PUSH1 0x0 KECCAK256 SWAP2 PUSH1 0x0 JUMPDEST PUSH1 0x1F NOT DUP6 AND DUP2 LT PUSH2 0x11CC JUMPI POP SWAP3 PUSH1 0x9 SWAP5 SWAP3 PUSH1 0x1 SWAP3 PUSH2 0x140 SWAP6 DUP4 PUSH1 0x1F NOT DUP2 AND LT PUSH2 0x11B3 JUMPI JUMPDEST POP POP POP DUP2 SHL ADD PUSH1 0x4 DUP6 ADD SSTORE PUSH2 0xFC6 JUMP JUMPDEST ADD MLOAD PUSH1 0x0 NOT PUSH1 0xF8 DUP5 PUSH1 0x3 SHL AND SHR NOT AND SWAP1 SSTORE DUP11 DUP1 DUP1 PUSH2 0x11A3 JUMP JUMPDEST SWAP2 SWAP3 PUSH1 0x20 PUSH1 0x1 DUP2 SWAP3 DUP7 DUP6 ADD MLOAD DUP2 SSTORE ADD SWAP5 ADD SWAP3 ADD PUSH2 0x117F JUMP JUMPDEST PUSH1 0x4 DUP6 ADD PUSH1 0x0 MSTORE PUSH1 0x20 PUSH1 0x0 KECCAK256 PUSH1 0x1F DUP5 ADD PUSH1 0x5 SHR DUP2 ADD PUSH1 0x20 DUP6 LT PUSH2 0x1224 JUMPI JUMPDEST PUSH1 0x1F DUP4 ADD PUSH1 0x5 SHR DUP3 ADD DUP2 LT PUSH2 0x1218 JUMPI POP POP PUSH2 0xF8D JUMP JUMPDEST PUSH1 0x0 DUP2 SSTORE PUSH1 0x1 ADD PUSH2 0x1202 JUMP JUMPDEST POP DUP1 PUSH2 0x1202 JUMP JUMPDEST ADD MLOAD SWAP1 POP DUP9 DUP1 PUSH2 0xF20 JUMP JUMPDEST SWAP3 POP PUSH1 0x2 DUP6 ADD PUSH1 0x0 MSTORE PUSH1 0x20 PUSH1 0x0 KECCAK256 SWAP1 PUSH1 0x0 SWAP4 JUMPDEST PUSH1 0x1F NOT DUP5 AND DUP6 LT PUSH2 0x128D JUMPI PUSH1 0x1 SWAP5 POP DUP4 PUSH1 0x1F NOT DUP2 AND LT PUSH2 0x1274 JUMPI JUMPDEST POP POP POP DUP2 SHL ADD PUSH1 0x2 DUP4 ADD SSTORE PUSH2 0xF38 JUMP JUMPDEST ADD MLOAD PUSH1 0x0 NOT PUSH1 0xF8 DUP5 PUSH1 0x3 SHL AND SHR NOT AND SWAP1 SSTORE DUP9 DUP1 DUP1 PUSH2 0x1264 JUMP JUMPDEST DUP2 DUP2 ADD MLOAD DUP4 SSTORE PUSH1 0x20 SWAP5 DUP6 ADD SWAP5 PUSH1 0x1 SWAP1 SWAP4 ADD SWAP3 SWAP1 SWAP2 ADD SWAP1 PUSH2 0x1249 JUMP JUMPDEST SWAP1 SWAP2 POP PUSH1 0x2 DUP6 ADD PUSH1 0x0 MSTORE PUSH1 0x20 PUSH1 0x0 KECCAK256 PUSH1 0x1F DUP5 ADD PUSH1 0x5 SHR DUP2 ADD PUSH1 0x20 DUP6 LT PUSH2 0x12F4 JUMPI JUMPDEST SWAP1 DUP5 SWAP4 SWAP3 SWAP2 JUMPDEST PUSH1 0x1F DUP4 ADD PUSH1 0x5 SHR DUP3 ADD DUP2 LT PUSH2 0x12E5 JUMPI POP POP PUSH2 0xF09 JUMP JUMPDEST PUSH1 0x0 DUP2 SSTORE DUP6 SWAP5 POP PUSH1 0x1 ADD PUSH2 0x12CF JUMP JUMPDEST POP DUP1 PUSH2 0x12C9 JUMP JUMPDEST ADD MLOAD SWAP1 POP DUP9 DUP1 PUSH2 0xEBC JUMP JUMPDEST SWAP3 POP DUP5 PUSH1 0x0 MSTORE PUSH1 0x20 PUSH1 0x0 KECCAK256 SWAP1 PUSH1 0x0 SWAP4 JUMPDEST PUSH1 0x1F NOT DUP5 AND DUP6 LT PUSH2 0x1357 JUMPI PUSH1 0x1 SWAP5 POP DUP4 PUSH1 0x1F NOT DUP2 AND LT PUSH2 0x133E JUMPI JUMPDEST POP POP POP DUP2 SHL ADD DUP3 SSTORE PUSH2 0xED1 JUMP JUMPDEST ADD MLOAD PUSH1 0x0 NOT PUSH1 0xF8 DUP5 PUSH1 0x3 SHL AND SHR NOT AND SWAP1 SSTORE DUP9 DUP1 DUP1 PUSH2 0x1331 JUMP JUMPDEST DUP2 DUP2 ADD MLOAD DUP4 SSTORE PUSH1 0x20 SWAP5 DUP6 ADD SWAP5 PUSH1 0x1 SWAP1 SWAP4 ADD SWAP3 SWAP1 SWAP2 ADD SWAP1 PUSH2 0x1316 JUMP JUMPDEST SWAP1 SWAP2 POP DUP5 PUSH1 0x0 MSTORE PUSH1 0x20 PUSH1 0x0 KECCAK256 PUSH1 0x1F DUP5 ADD PUSH1 0x5 SHR DUP2 ADD PUSH1 0x20 DUP6 LT PUSH2 0x13BB JUMPI JUMPDEST SWAP1 DUP5 SWAP4 SWAP3 SWAP2 JUMPDEST PUSH1 0x1F DUP4 ADD PUSH1 0x5 SHR DUP3 ADD DUP2 LT PUSH2 0x13AC JUMPI POP POP PUSH2 0xEA5 JUMP JUMPDEST PUSH1 0x0 DUP2 SSTORE DUP6 SWAP5 POP PUSH1 0x1 ADD PUSH2 0x1396 JUMP JUMPDEST POP DUP1 PUSH2 0x1390 JUMP JUMPDEST PUSH1 0x64 SWAP1 PUSH32 0x5573657220646F63756D656E74206C696D697420657863656564656400000000 PUSH1 0x40 MLOAD SWAP2 PUSH3 0x461BCD PUSH1 0xE5 SHL DUP4 MSTORE PUSH1 0x20 PUSH1 0x4 DUP5 ADD MSTORE PUSH1 0x1C PUSH1 0x24 DUP5 ADD MSTORE DUP3 ADD MSTORE REVERT JUMPDEST PUSH1 0x64 SWAP1 PUSH32 0x496E73756666696369656E7420616E63686F72696E6720666565000000000000 PUSH1 0x40 MLOAD SWAP2 PUSH3 0x461BCD PUSH1 0xE5 SHL DUP4 MSTORE PUSH1 0x20 PUSH1 0x4 DUP5 ADD MSTORE PUSH1 0x1A PUSH1 0x24 DUP5 ADD MSTORE DUP3 ADD MSTORE REVERT JUMPDEST PUSH1 0x64 SWAP1 PUSH32 0x446F63756D656E7420616C726561647920657869737473000000000000000000 PUSH1 0x40 MLOAD SWAP2 PUSH3 0x461BCD PUSH1 0xE5 SHL DUP4 MSTORE PUSH1 0x20 PUSH1 0x4 DUP5 ADD MSTORE PUSH1 0x17 PUSH1 0x24 DUP5 ADD MSTORE DUP3 ADD MSTORE REVERT JUMPDEST PUSH1 0x64 SWAP1 PUSH17 0x557365722044494420746F6F206C6F6E67 PUSH1 0x78 SHL PUSH1 0x40 MLOAD SWAP2 PUSH3 0x461BCD PUSH1 0xE5 SHL DUP4 MSTORE PUSH1 0x20 PUSH1 0x4 DUP5 ADD MSTORE PUSH1 0x11 PUSH1 0x24 DUP5 ADD MSTORE DUP3 ADD MSTORE REVERT JUMPDEST PUSH1 0x64 SWAP1 PUSH18 0x155CD95C88111251081D1BDBC81CDA1BDC9D PUSH1 0x72 SHL PUSH1 0x40 MLOAD SWAP2 PUSH3 0x461BCD PUSH1 0xE5 SHL DUP4 MSTORE PUSH1 0x20 PUSH1 0x4 DUP5 ADD MSTORE PUSH1 0x12 PUSH1 0x24 DUP5 ADD MSTORE DUP3 ADD MSTORE REVERT JUMPDEST CALLVALUE PUSH2 0x1A4 JUMPI PUSH2 0x150D CALLDATASIZE PUSH2 0x1E2A JUMP JUMPDEST PUSH2 0x1515 PUSH2 0x263C JUMP JUMPDEST PUSH2 0x151D PUSH2 0x261E JUMP JUMPDEST CALLER PUSH1 0x0 SWAP1 DUP2 MSTORE PUSH32 0x5484FCF1C8B2251E43FE4C0EAE0AE144BBE4AE3C104340C02444D8C4A0739A72 PUSH1 0x20 SWAP1 DUP2 MSTORE PUSH1 0x40 SWAP1 SWAP2 KECCAK256 SLOAD PUSH1 0x1 SWAP4 SWAP2 SWAP1 PUSH32 0x5297E68F3A27F04914F2C6DB0AD63B5E5C8173CEBCC1A5341DF045CF6DAD7ADC SWAP1 PUSH1 0xFF AND ISZERO PUSH2 0x18C4 JUMPI POP PUSH2 0x158C PUSH1 0x40 DUP4 MLOAD EQ PUSH2 0x2273 JUMP JUMPDEST PUSH2 0x1598 PUSH2 0x397 DUP4 PUSH2 0x2784 JUMP JUMPDEST PUSH1 0x40 MLOAD PUSH2 0x15B4 PUSH1 0xFF DUP5 MLOAD SWAP3 DUP5 DUP2 DUP2 DUP9 ADD SWAP6 PUSH2 0x886 DUP2 DUP4 DUP10 PUSH2 0x1E9C JUMP JUMPDEST PUSH1 0x40 MLOAD SWAP1 PUSH2 0x15E6 PUSH1 0xFF DUP6 MLOAD PUSH2 0x15CA DUP2 DUP7 DUP7 PUSH2 0x1E9C JUMP JUMPDEST DUP5 ADD DUP5 DUP7 PUSH1 0x3 SWAP7 DUP4 DUP9 DUP1 SWAP6 MSTORE SUB ADD SWAP1 KECCAK256 ADD SLOAD PUSH1 0x8 SHR AND ISZERO PUSH2 0x26AB JUMP JUMPDEST DUP5 MLOAD ISZERO PUSH2 0x187F JUMPI PUSH2 0x3E8 DUP6 MLOAD GT PUSH2 0x183A JUMPI DUP3 PUSH2 0x160D SWAP2 PUSH1 0x40 MLOAD DUP1 SWAP4 DUP2 SWAP3 DUP9 MLOAD SWAP3 DUP4 SWAP2 PUSH2 0x1E9C JUMP JUMPDEST DUP2 ADD DUP5 DUP2 MSTORE SUB ADD SWAP1 KECCAK256 SWAP1 DUP1 DUP3 ADD PUSH2 0x100 PUSH2 0xFF00 NOT DUP3 SLOAD AND OR SWAP1 SSTORE PUSH1 0x4 DUP3 ADD SWAP1 DUP6 MLOAD SWAP1 PUSH1 0x1 PUSH1 0x1 PUSH1 0x40 SHL SUB DUP3 GT PUSH2 0x114D JUMPI PUSH2 0x1647 DUP4 SLOAD PUSH2 0x1FBE JUMP JUMPDEST PUSH1 0x1F DUP2 GT PUSH2 0x17F1 JUMPI JUMPDEST POP DUP8 DUP6 DUP9 PUSH1 0x1F DUP6 GT PUSH1 0x1 EQ PUSH2 0x1755 JUMPI SWAP5 DUP5 DUP1 PUSH2 0x171C SWAP6 PUSH31 0xB761EDBEEC2B2C2556725F3190E3757B743D4D4BEB14B00071207F07E28B87 SWAP11 SWAP8 PUSH1 0x8 SWAP7 PUSH2 0x1742 SWAP12 SWAP7 PUSH2 0x1731 SWAP12 PUSH1 0x0 SWAP6 PUSH2 0x174A JUMPI JUMPDEST POP POP SHL SWAP3 PUSH1 0x0 NOT SWAP2 SHL SHR NOT AND OR SWAP1 SSTORE JUMPDEST TIMESTAMP PUSH1 0x5 DUP3 ADD SSTORE PUSH1 0x7 DUP2 ADD CALLER PUSH1 0x1 PUSH1 0x1 PUSH1 0x60 SHL SUB PUSH1 0xA0 SHL DUP3 SLOAD AND OR SWAP1 SSTORE ADD SWAP2 DUP3 SLOAD PUSH1 0x0 MSTORE PUSH1 0x5 DUP2 MSTORE PUSH1 0x40 PUSH1 0x0 KECCAK256 PUSH1 0x40 MLOAD SWAP2 PUSH2 0x16E5 DUP4 PUSH2 0x1D55 JUMP JUMPDEST TIMESTAMP DUP4 MSTORE PUSH1 0x40 MLOAD SWAP1 PUSH2 0x16F5 DUP3 PUSH2 0x1D8C JUMP JUMPDEST PUSH1 0x7 DUP3 MSTORE PUSH7 0x14915593D2D151 PUSH1 0xCA SHL DUP2 DUP4 ADD MSTORE DUP4 ADD MSTORE DUP9 PUSH1 0x40 DUP4 ADD MSTORE CALLER PUSH1 0x60 DUP4 ADD MSTORE PUSH2 0x2371 JUMP JUMPDEST PUSH2 0x1727 PUSH1 0x9 SLOAD PUSH2 0x234C JUMP JUMPDEST PUSH1 0x9 SSTORE SLOAD SWAP4 PUSH2 0x25FE JUMP JUMPDEST SWAP3 PUSH1 0x40 MLOAD SWAP2 DUP3 SWAP2 CALLER SWAP7 TIMESTAMP SWAP1 DUP5 PUSH2 0x26ED JUMP JUMPDEST SUB SWAP1 LOG3 PUSH1 0x0 SSTORE STOP JUMPDEST ADD MLOAD SWAP4 POP CODESIZE DUP16 PUSH2 0x169C JUMP JUMPDEST POP SWAP1 SWAP3 SWAP2 PUSH1 0x1F NOT DUP4 AND SWAP2 DUP6 PUSH1 0x0 MSTORE DUP10 DUP9 PUSH1 0x0 KECCAK256 SWAP4 PUSH1 0x0 JUMPDEST DUP2 DUP2 LT PUSH2 0x17D8 JUMPI POP SWAP5 PUSH1 0x8 SWAP5 PUSH2 0x1742 SWAP10 SWAP5 PUSH2 0x1731 SWAP10 SWAP5 PUSH31 0xB761EDBEEC2B2C2556725F3190E3757B743D4D4BEB14B00071207F07E28B87 SWAP13 SWAP10 SWAP5 DUP5 PUSH2 0x171C SWAP11 LT PUSH2 0x17BE JUMPI JUMPDEST POP POP POP POP DUP2 SHL ADD SWAP1 SSTORE PUSH2 0x16AC JUMP JUMPDEST ADD MLOAD SWAP1 PUSH1 0xF8 DUP5 PUSH1 0x0 NOT SWAP3 SHL AND SHR NOT AND SWAP1 SSTORE DUP14 DUP1 DUP1 DUP15 PUSH2 0x17B0 JUMP JUMPDEST SWAP2 DUP4 ADD MLOAD DUP6 SSTORE DUP13 SWAP7 SWAP1 SWAP5 ADD SWAP4 SWAP2 DUP10 ADD SWAP2 DUP12 SWAP2 DUP11 ADD PUSH2 0x176C JUMP JUMPDEST DUP4 PUSH1 0x0 MSTORE DUP6 PUSH1 0x0 KECCAK256 PUSH1 0x1F DUP5 ADD PUSH1 0x5 SHR DUP2 ADD SWAP2 DUP8 DUP6 LT PUSH2 0x1830 JUMPI JUMPDEST PUSH1 0x1F ADD PUSH1 0x5 SHR ADD SWAP1 DUP10 SWAP1 JUMPDEST DUP3 DUP2 LT PUSH2 0x1824 JUMPI POP POP PUSH2 0x1650 JUMP JUMPDEST PUSH1 0x0 DUP2 SSTORE ADD DUP10 SWAP1 PUSH2 0x1816 JUMP JUMPDEST SWAP1 SWAP2 POP DUP2 SWAP1 PUSH2 0x180B JUMP JUMPDEST PUSH1 0x40 MLOAD PUSH3 0x461BCD PUSH1 0xE5 SHL DUP2 MSTORE PUSH1 0x4 DUP2 ADD DUP5 SWAP1 MSTORE PUSH1 0x1A PUSH1 0x24 DUP3 ADD MSTORE PUSH32 0x5265766F636174696F6E20726561736F6E20746F6F206C6F6E67000000000000 PUSH1 0x44 DUP3 ADD MSTORE PUSH1 0x64 SWAP1 REVERT JUMPDEST PUSH1 0x40 MLOAD PUSH3 0x461BCD PUSH1 0xE5 SHL DUP2 MSTORE PUSH1 0x4 DUP2 ADD DUP5 SWAP1 MSTORE PUSH1 0x1A PUSH1 0x24 DUP3 ADD MSTORE PUSH32 0x5265766F636174696F6E20726561736F6E207265717569726564000000000000 PUSH1 0x44 DUP3 ADD MSTORE PUSH1 0x64 SWAP1 REVERT JUMPDEST PUSH1 0x44 SWAP1 PUSH1 0x40 MLOAD SWAP1 PUSH4 0xE2517D3F PUSH1 0xE0 SHL DUP3 MSTORE CALLER PUSH1 0x4 DUP4 ADD MSTORE PUSH1 0x24 DUP3 ADD MSTORE REVERT JUMPDEST CALLVALUE PUSH2 0x1A4 JUMPI PUSH1 0x0 CALLDATASIZE PUSH1 0x3 NOT ADD SLT PUSH2 0x1A4 JUMPI PUSH2 0x18FB PUSH2 0x20FA JUMP JUMPDEST PUSH1 0x2 SLOAD PUSH1 0xFF DUP2 AND ISZERO PUSH2 0x193A JUMPI PUSH1 0xFF NOT AND PUSH1 0x2 SSTORE PUSH32 0x5DB9EE0A495BF2E6FF9C91A7834C1BA4FDD244A5E8AA4E537BD38AEAE4B073AA PUSH1 0x20 PUSH1 0x40 MLOAD CALLER DUP2 MSTORE LOG1 STOP JUMPDEST PUSH1 0x40 MLOAD PUSH4 0x8DFC202B PUSH1 0xE0 SHL DUP2 MSTORE PUSH1 0x4 SWAP1 REVERT JUMPDEST CALLVALUE PUSH2 0x1A4 JUMPI PUSH1 0x40 CALLDATASIZE PUSH1 0x3 NOT ADD SLT PUSH2 0x1A4 JUMPI PUSH2 0x1965 PUSH2 0x1E70 JUMP JUMPDEST CALLER PUSH1 0x1 PUSH1 0x1 PUSH1 0xA0 SHL SUB DUP3 AND SUB PUSH2 0x1981 JUMPI PUSH2 0x1B SWAP1 PUSH1 0x4 CALLDATALOAD PUSH2 0x21FC JUMP JUMPDEST PUSH1 0x40 MLOAD PUSH4 0x334BD919 PUSH1 0xE1 SHL DUP2 MSTORE PUSH1 0x4 SWAP1 REVERT JUMPDEST CALLVALUE PUSH2 0x1A4 JUMPI PUSH1 0x20 CALLDATASIZE PUSH1 0x3 NOT ADD SLT PUSH2 0x1A4 JUMPI PUSH1 0x4 CALLDATALOAD PUSH1 0x1 PUSH1 0x1 PUSH1 0x40 SHL SUB DUP2 GT PUSH2 0x1A4 JUMPI PUSH1 0xFF PUSH2 0x19CB PUSH1 0x20 PUSH2 0x39C DUP2 SWAP5 CALLDATASIZE SWAP1 PUSH1 0x4 ADD PUSH2 0x1DE3 JUMP JUMPDEST DUP2 ADD PUSH1 0x4 DUP2 MSTORE SUB ADD SWAP1 KECCAK256 SLOAD AND PUSH1 0x40 MLOAD SWAP1 ISZERO ISZERO DUP2 MSTORE RETURN JUMPDEST CALLVALUE PUSH2 0x1A4 JUMPI PUSH1 0x40 CALLDATASIZE PUSH1 0x3 NOT ADD SLT PUSH2 0x1A4 JUMPI PUSH2 0x1B PUSH1 0x4 CALLDATALOAD PUSH2 0x1A00 PUSH2 0x1E70 JUMP JUMPDEST SWAP1 DUP1 PUSH1 0x0 MSTORE PUSH1 0x1 PUSH1 0x20 MSTORE PUSH2 0x1A1B PUSH1 0x1 PUSH1 0x40 PUSH1 0x0 KECCAK256 ADD SLOAD PUSH2 0x2156 JUMP JUMPDEST PUSH2 0x217C JUMP JUMPDEST CALLVALUE PUSH2 0x1A4 JUMPI PUSH1 0x20 CALLDATASIZE PUSH1 0x3 NOT ADD SLT PUSH2 0x1A4 JUMPI PUSH1 0x4 CALLDATALOAD PUSH1 0x0 MSTORE PUSH1 0x1 PUSH1 0x20 MSTORE PUSH1 0x20 PUSH1 0x1 PUSH1 0x40 PUSH1 0x0 KECCAK256 ADD SLOAD PUSH1 0x40 MLOAD SWAP1 DUP2 MSTORE RETURN JUMPDEST CALLVALUE PUSH2 0x1A4 JUMPI PUSH1 0x0 CALLDATASIZE PUSH1 0x3 NOT ADD SLT PUSH2 0x1A4 JUMPI PUSH1 0x20 PUSH1 0xC SLOAD PUSH1 0x40 MLOAD SWAP1 DUP2 MSTORE RETURN JUMPDEST CALLVALUE PUSH2 0x1A4 JUMPI PUSH2 0x1A7B CALLDATASIZE PUSH2 0x1E2A JUMP JUMPDEST SWAP1 PUSH2 0x1A84 PUSH2 0x263C JUMP JUMPDEST PUSH2 0x1A8C PUSH2 0x261E JUMP JUMPDEST PUSH2 0x1A94 PUSH2 0x209E JUMP JUMPDEST PUSH2 0x1AA1 PUSH1 0x40 DUP3 MLOAD EQ PUSH2 0x2273 JUMP JUMPDEST PUSH2 0x1AAD PUSH2 0x397 DUP3 PUSH2 0x2784 JUMP JUMPDEST PUSH2 0x1ABC DUP3 MLOAD PUSH1 0xA SLOAD LT ISZERO PUSH2 0x230B JUMP JUMPDEST PUSH1 0xFF PUSH2 0x1B1E PUSH1 0x40 MLOAD DUP4 MLOAD PUSH2 0x1ADF PUSH1 0x20 SWAP5 DUP4 DUP7 DUP1 SWAP6 DUP2 DUP11 ADD SWAP6 PUSH2 0x886 DUP2 DUP4 DUP10 PUSH2 0x1E9C JUMP JUMPDEST PUSH2 0x1B0D PUSH1 0xFF PUSH1 0x3 PUSH1 0x40 MLOAD DUP6 DUP2 DUP11 MLOAD PUSH2 0x1AF8 DUP2 DUP4 DUP11 PUSH2 0x1E9C JUMP JUMPDEST DUP2 ADD DUP5 DUP2 MSTORE SUB ADD SWAP1 KECCAK256 ADD SLOAD PUSH1 0x8 SHR AND ISZERO PUSH2 0x26AB JUMP JUMPDEST PUSH1 0x40 MLOAD DUP1 SWAP4 DUP2 SWAP3 DUP8 MLOAD SWAP3 DUP4 SWAP2 PUSH2 0x1E9C JUMP JUMPDEST DUP2 ADD PUSH1 0x3 DUP2 MSTORE SUB ADD SWAP1 KECCAK256 PUSH1 0x2 DUP2 ADD DUP5 MLOAD PUSH1 0x1 PUSH1 0x1 PUSH1 0x40 SHL SUB DUP2 GT PUSH2 0x114D JUMPI PUSH2 0x1B46 DUP3 SLOAD PUSH2 0x1FBE JUMP JUMPDEST PUSH1 0x1F DUP2 GT PUSH2 0x1CBC JUMPI JUMPDEST POP DUP4 PUSH1 0x1F DUP3 GT PUSH1 0x1 EQ PUSH2 0x1C2A JUMPI PUSH1 0x8 PUSH2 0x1C15 SWAP5 PUSH2 0x1731 SWAP5 DUP5 PUSH32 0x757C4DAE4EF0E053674623DBF3E6AB05ED107C11509BF3DEF329E305AFF3184D SWAP9 SWAP6 PUSH2 0x1C0E SWAP6 PUSH1 0x0 SWAP2 PUSH2 0x1C1F JUMPI JUMPDEST POP DUP2 PUSH1 0x1 SHL SWAP2 PUSH1 0x0 NOT SWAP1 PUSH1 0x3 SHL SHR NOT AND OR SWAP1 SSTORE JUMPDEST PUSH1 0x9 DUP2 ADD PUSH2 0x1BB8 DUP2 SLOAD PUSH2 0x234C JUMP JUMPDEST SWAP1 SSTORE ADD SWAP2 DUP3 SLOAD PUSH1 0x0 MSTORE PUSH1 0x5 DUP2 MSTORE PUSH1 0x40 PUSH1 0x0 KECCAK256 PUSH1 0x40 MLOAD SWAP2 PUSH2 0x1BD7 DUP4 PUSH2 0x1D55 JUMP JUMPDEST TIMESTAMP DUP4 MSTORE PUSH1 0x40 MLOAD SWAP1 PUSH2 0x1BE7 DUP3 PUSH2 0x1D8C JUMP JUMPDEST PUSH1 0x7 DUP3 MSTORE PUSH7 0x15541110551151 PUSH1 0xCA SHL DUP2 DUP4 ADD MSTORE DUP4 ADD MSTORE DUP9 PUSH1 0x40 DUP4 ADD MSTORE CALLER PUSH1 0x60 DUP4 ADD MSTORE PUSH2 0x2371 JUMP JUMPDEST SLOAD SWAP4 PUSH2 0x25FE JUMP JUMPDEST SUB SWAP1 LOG3 PUSH1 0x1 PUSH1 0x0 SSTORE STOP JUMPDEST SWAP1 POP DUP12 ADD MLOAD DUP13 PUSH2 0x1B96 JUMP JUMPDEST PUSH1 0x1F NOT DUP3 AND SWAP1 DUP4 PUSH1 0x0 MSTORE DUP6 PUSH1 0x0 KECCAK256 SWAP2 PUSH1 0x0 JUMPDEST DUP2 DUP2 LT PUSH2 0x1CA5 JUMPI POP SWAP5 PUSH2 0x1731 SWAP5 PUSH1 0x1 DUP6 PUSH2 0x1C0E SWAP6 PUSH1 0x8 SWAP6 PUSH32 0x757C4DAE4EF0E053674623DBF3E6AB05ED107C11509BF3DEF329E305AFF3184D SWAP12 SWAP9 PUSH2 0x1C15 SWAP12 LT PUSH2 0x1C8C JUMPI JUMPDEST POP POP DUP2 SHL ADD SWAP1 SSTORE PUSH2 0x1BAA JUMP JUMPDEST DUP14 ADD MLOAD PUSH1 0x0 NOT PUSH1 0xF8 DUP5 PUSH1 0x3 SHL AND SHR NOT AND SWAP1 SSTORE DUP13 DUP1 PUSH2 0x1C80 JUMP JUMPDEST SWAP2 SWAP3 DUP8 PUSH1 0x1 DUP2 SWAP3 DUP7 DUP14 ADD MLOAD DUP2 SSTORE ADD SWAP5 ADD SWAP3 ADD PUSH2 0x1C3C JUMP JUMPDEST DUP3 PUSH1 0x0 MSTORE DUP5 PUSH1 0x0 KECCAK256 PUSH1 0x1F DUP4 ADD PUSH1 0x5 SHR DUP2 ADD SWAP2 DUP7 DUP5 LT PUSH2 0x1CF8 JUMPI JUMPDEST PUSH1 0x1F ADD PUSH1 0x5 SHR ADD SWAP1 JUMPDEST DUP2 DUP2 LT PUSH2 0x1CEC JUMPI POP PUSH2 0x1B4F JUMP JUMPDEST PUSH1 0x0 DUP2 SSTORE PUSH1 0x1 ADD PUSH2 0x1CDF JUMP JUMPDEST SWAP1 SWAP2 POP DUP2 SWAP1 PUSH2 0x1CD6 JUMP JUMPDEST CALLVALUE PUSH2 0x1A4 JUMPI PUSH1 0x20 CALLDATASIZE PUSH1 0x3 NOT ADD SLT PUSH2 0x1A4 JUMPI PUSH1 0x4 CALLDATALOAD SWAP1 PUSH4 0xFFFFFFFF PUSH1 0xE0 SHL DUP3 AND DUP1 SWAP3 SUB PUSH2 0x1A4 JUMPI PUSH1 0x20 SWAP2 PUSH4 0x7965DB0B PUSH1 0xE0 SHL DUP2 EQ SWAP1 DUP2 ISZERO PUSH2 0x1D44 JUMPI JUMPDEST POP ISZERO ISZERO DUP2 MSTORE RETURN JUMPDEST PUSH4 0x1FFC9A7 PUSH1 0xE0 SHL EQ SWAP1 POP DUP4 PUSH2 0x1D3D JUMP JUMPDEST PUSH1 0x80 DUP2 ADD SWAP1 DUP2 LT PUSH1 0x1 PUSH1 0x1 PUSH1 0x40 SHL SUB DUP3 GT OR PUSH2 0x114D JUMPI PUSH1 0x40 MSTORE JUMP JUMPDEST PUSH2 0x160 DUP2 ADD SWAP1 DUP2 LT PUSH1 0x1 PUSH1 0x1 PUSH1 0x40 SHL SUB DUP3 GT OR PUSH2 0x114D JUMPI PUSH1 0x40 MSTORE JUMP JUMPDEST PUSH1 0x40 DUP2 ADD SWAP1 DUP2 LT PUSH1 0x1 PUSH1 0x1 PUSH1 0x40 SHL SUB DUP3 GT OR PUSH2 0x114D JUMPI PUSH1 0x40 MSTORE JUMP JUMPDEST SWAP1 PUSH1 0x1F DUP1 NOT SWAP2 ADD AND DUP2 ADD SWAP1 DUP2 LT PUSH1 0x1 PUSH1 0x1 PUSH1 0x40 SHL SUB DUP3 GT OR PUSH2 0x114D JUMPI PUSH1 0x40 MSTORE JUMP JUMPDEST PUSH1 0x1 PUSH1 0x1 PUSH1 0x40 SHL SUB DUP2 GT PUSH2 0x114D JUMPI PUSH1 0x1F ADD PUSH1 0x1F NOT AND PUSH1 0x20 ADD SWAP1 JUMP JUMPDEST DUP2 PUSH1 0x1F DUP3 ADD SLT ISZERO PUSH2 0x1A4 JUMPI DUP1 CALLDATALOAD SWAP1 PUSH2 0x1DFA DUP3 PUSH2 0x1DC8 JUMP JUMPDEST SWAP3 PUSH2 0x1E08 PUSH1 0x40 MLOAD SWAP5 DUP6 PUSH2 0x1DA7 JUMP JUMPDEST DUP3 DUP5 MSTORE PUSH1 0x20 DUP4 DUP4 ADD ADD GT PUSH2 0x1A4 JUMPI DUP2 PUSH1 0x0 SWAP3 PUSH1 0x20 DUP1 SWAP4 ADD DUP4 DUP7 ADD CALLDATACOPY DUP4 ADD ADD MSTORE SWAP1 JUMP JUMPDEST SWAP1 PUSH1 0x40 PUSH1 0x3 NOT DUP4 ADD SLT PUSH2 0x1A4 JUMPI PUSH1 0x1 PUSH1 0x1 PUSH1 0x40 SHL SUB PUSH1 0x4 CALLDATALOAD DUP2 DUP2 GT PUSH2 0x1A4 JUMPI DUP4 PUSH2 0x1E56 SWAP2 PUSH1 0x4 ADD PUSH2 0x1DE3 JUMP JUMPDEST SWAP3 PUSH1 0x24 CALLDATALOAD SWAP2 DUP3 GT PUSH2 0x1A4 JUMPI PUSH2 0x1E6D SWAP2 PUSH1 0x4 ADD PUSH2 0x1DE3 JUMP JUMPDEST SWAP1 JUMP JUMPDEST PUSH1 0x24 CALLDATALOAD SWAP1 PUSH1 0x1 PUSH1 0x1 PUSH1 0xA0 SHL SUB DUP3 AND DUP3 SUB PUSH2 0x1A4 JUMPI JUMP JUMPDEST PUSH1 0x4 CALLDATALOAD SWAP1 PUSH1 0x1 PUSH1 0x1 PUSH1 0xA0 SHL SUB DUP3 AND DUP3 SUB PUSH2 0x1A4 JUMPI JUMP JUMPDEST PUSH1 0x0 JUMPDEST DUP4 DUP2 LT PUSH2 0x1EAF JUMPI POP POP PUSH1 0x0 SWAP2 ADD MSTORE JUMP JUMPDEST DUP2 DUP2 ADD MLOAD DUP4 DUP3 ADD MSTORE PUSH1 0x20 ADD PUSH2 0x1E9F JUMP JUMPDEST DUP1 SLOAD DUP3 LT ISZERO PUSH2 0x1ED7 JUMPI PUSH1 0x0 MSTORE PUSH1 0x20 PUSH1 0x0 KECCAK256 ADD SWAP1 PUSH1 0x0 SWAP1 JUMP JUMPDEST PUSH4 0x4E487B71 PUSH1 0xE0 SHL PUSH1 0x0 MSTORE PUSH1 0x32 PUSH1 0x4 MSTORE PUSH1 0x24 PUSH1 0x0 REVERT JUMPDEST SWAP1 DUP2 MLOAD DUP1 DUP3 MSTORE PUSH1 0x20 DUP1 DUP1 SWAP4 ADD SWAP4 ADD SWAP2 PUSH1 0x0 JUMPDEST DUP3 DUP2 LT PUSH2 0x1F0D JUMPI POP POP POP POP SWAP1 JUMP JUMPDEST DUP4 MLOAD DUP6 MSTORE SWAP4 DUP2 ADD SWAP4 SWAP3 DUP2 ADD SWAP3 PUSH1 0x1 ADD PUSH2 0x1EFF JUMP JUMPDEST SWAP1 PUSH1 0x20 SWAP2 PUSH2 0x1F3A DUP2 MLOAD DUP1 SWAP3 DUP2 DUP6 MSTORE DUP6 DUP1 DUP7 ADD SWAP2 ADD PUSH2 0x1E9C JUMP JUMPDEST PUSH1 0x1F ADD PUSH1 0x1F NOT AND ADD ADD SWAP1 JUMP JUMPDEST SWAP1 DUP1 DUP3 MLOAD SWAP1 DUP2 DUP2 MSTORE PUSH1 0x20 DUP1 SWAP2 ADD SWAP3 DUP2 DUP1 DUP5 PUSH1 0x5 SHL DUP4 ADD ADD SWAP6 ADD SWAP4 PUSH1 0x0 SWAP2 JUMPDEST DUP5 DUP4 LT PUSH2 0x1F74 JUMPI POP POP POP POP POP POP SWAP1 JUMP JUMPDEST SWAP1 SWAP2 SWAP3 SWAP4 SWAP5 SWAP6 DUP5 DUP1 PUSH2 0x1F92 PUSH1 0x1 SWAP4 PUSH1 0x1F NOT DUP7 DUP3 SUB ADD DUP8 MSTORE DUP11 MLOAD PUSH2 0x1F21 JUMP JUMPDEST SWAP9 ADD SWAP4 ADD SWAP4 ADD SWAP2 SWAP5 SWAP4 SWAP3 SWAP1 PUSH2 0x1F64 JUMP JUMPDEST DUP1 SLOAD DUP3 LT ISZERO PUSH2 0x1ED7 JUMPI PUSH1 0x0 MSTORE PUSH1 0x20 PUSH1 0x0 KECCAK256 SWAP1 PUSH1 0x2 SHL ADD SWAP1 PUSH1 0x0 SWAP1 JUMP JUMPDEST SWAP1 PUSH1 0x1 DUP3 DUP2 SHR SWAP3 AND DUP1 ISZERO PUSH2 0x1FEE JUMPI JUMPDEST PUSH1 0x20 DUP4 LT EQ PUSH2 0x1FD8 JUMPI JUMP JUMPDEST PUSH4 0x4E487B71 PUSH1 0xE0 SHL PUSH1 0x0 MSTORE PUSH1 0x22 PUSH1 0x4 MSTORE PUSH1 0x24 PUSH1 0x0 REVERT JUMPDEST SWAP2 PUSH1 0x7F AND SWAP2 PUSH2 0x1FCD JUMP JUMPDEST SWAP1 PUSH1 0x40 MLOAD SWAP2 DUP3 PUSH1 0x0 DUP3 SLOAD SWAP3 PUSH2 0x200C DUP5 PUSH2 0x1FBE JUMP JUMPDEST SWAP1 DUP2 DUP5 MSTORE PUSH1 0x1 SWAP5 DUP6 DUP2 AND SWAP1 DUP2 PUSH1 0x0 EQ PUSH2 0x207B JUMPI POP PUSH1 0x1 EQ PUSH2 0x2038 JUMPI JUMPDEST POP POP PUSH2 0x2036 SWAP3 POP SUB DUP4 PUSH2 0x1DA7 JUMP JUMPDEST JUMP JUMPDEST SWAP1 SWAP4 SWAP2 POP PUSH1 0x0 MSTORE PUSH1 0x20 SWAP1 DUP2 PUSH1 0x0 KECCAK256 SWAP4 PUSH1 0x0 SWAP2 JUMPDEST DUP2 DUP4 LT PUSH2 0x2063 JUMPI POP POP PUSH2 0x2036 SWAP4 POP DUP3 ADD ADD CODESIZE DUP1 PUSH2 0x2028 JUMP JUMPDEST DUP6 SLOAD DUP9 DUP5 ADD DUP6 ADD MSTORE SWAP5 DUP6 ADD SWAP5 DUP8 SWAP5 POP SWAP2 DUP4 ADD SWAP2 PUSH2 0x204B JUMP JUMPDEST SWAP2 POP POP PUSH2 0x2036 SWAP5 POP PUSH1 0x20 SWAP3 POP PUSH1 0xFF NOT AND DUP3 DUP5 ADD MSTORE ISZERO ISZERO PUSH1 0x5 SHL DUP3 ADD ADD CODESIZE DUP1 PUSH2 0x2028 JUMP JUMPDEST CALLER PUSH1 0x0 SWAP1 DUP2 MSTORE PUSH32 0x220038DD9BF29A5AA35DDE1E10C90C54E92809770D3E12470DC41D08D0241D47 PUSH1 0x20 MSTORE PUSH1 0x40 SWAP1 KECCAK256 SLOAD PUSH32 0x8B5CE2E3163E37059F807346DAD4DD6235ED44F92DCED22992662CB45706362 SWAP1 PUSH1 0xFF AND ISZERO PUSH2 0x18C4 JUMPI POP JUMP JUMPDEST CALLER PUSH1 0x0 SWAP1 DUP2 MSTORE PUSH32 0x50EFBDE2D46C37E9785F1791697F77E94BB7B701E19F1930A668820722D37694 PUSH1 0x20 MSTORE PUSH1 0x40 SWAP1 KECCAK256 SLOAD PUSH32 0xA49807205CE4D355092EF5A8A18F56E8913CF4A201FBE287825B095693C21775 SWAP1 PUSH1 0xFF AND ISZERO PUSH2 0x18C4 JUMPI POP JUMP JUMPDEST DUP1 PUSH1 0x0 MSTORE PUSH1 0x1 PUSH1 0x20 MSTORE PUSH1 0x40 PUSH1 0x0 KECCAK256 CALLER PUSH1 0x0 MSTORE PUSH1 0x20 MSTORE PUSH1 0xFF PUSH1 0x40 PUSH1 0x0 KECCAK256 SLOAD AND ISZERO PUSH2 0x18C4 JUMPI POP JUMP JUMPDEST SWAP1 PUSH1 0x0 SWAP2 DUP1 DUP4 MSTORE PUSH1 0x1 PUSH1 0x20 MSTORE PUSH1 0x40 DUP4 KECCAK256 SWAP2 PUSH1 0x1 DUP1 PUSH1 0xA0 SHL SUB AND SWAP2 DUP3 DUP5 MSTORE PUSH1 0x20 MSTORE PUSH1 0xFF PUSH1 0x40 DUP5 KECCAK256 SLOAD AND ISZERO PUSH1 0x0 EQ PUSH2 0x21F7 JUMPI DUP1 DUP4 MSTORE PUSH1 0x1 PUSH1 0x20 MSTORE PUSH1 0x40 DUP4 KECCAK256 DUP3 DUP5 MSTORE PUSH1 0x20 MSTORE PUSH1 0x40 DUP4 KECCAK256 PUSH1 0x1 PUSH1 0xFF NOT DUP3 SLOAD AND OR SWAP1 SSTORE PUSH32 0x2F8788117E7EFF1D82E926EC794901D17C78024A50270940304540A733656F0D CALLER SWAP4 DUP1 LOG4 PUSH1 0x1 SWAP1 JUMP JUMPDEST POP POP SWAP1 JUMP JUMPDEST SWAP1 PUSH1 0x0 SWAP2 DUP1 DUP4 MSTORE PUSH1 0x1 PUSH1 0x20 MSTORE PUSH1 0x40 DUP4 KECCAK256 SWAP2 PUSH1 0x1 DUP1 PUSH1 0xA0 SHL SUB AND SWAP2 DUP3 DUP5 MSTORE PUSH1 0x20 MSTORE PUSH1 0xFF PUSH1 0x40 DUP5 KECCAK256 SLOAD AND PUSH1 0x0 EQ PUSH2 0x21F7 JUMPI DUP1 DUP4 MSTORE PUSH1 0x1 PUSH1 0x20 MSTORE PUSH1 0x40 DUP4 KECCAK256 DUP3 DUP5 MSTORE PUSH1 0x20 MSTORE PUSH1 0x40 DUP4 KECCAK256 PUSH1 0xFF NOT DUP2 SLOAD AND SWAP1 SSTORE PUSH32 0xF6391F5C32D9C69D2A47EA670B442974B53935D1EDC7FD64EB21E047A839171B CALLER SWAP4 DUP1 LOG4 PUSH1 0x1 SWAP1 JUMP JUMPDEST ISZERO PUSH2 0x227A JUMPI JUMP JUMPDEST PUSH1 0x40 MLOAD PUSH3 0x461BCD PUSH1 0xE5 SHL DUP2 MSTORE PUSH1 0x20 PUSH1 0x4 DUP3 ADD MSTORE PUSH1 0x1C PUSH1 0x24 DUP3 ADD MSTORE PUSH32 0x496E76616C696420646F63756D656E742068617368206C656E67746800000000 PUSH1 0x44 DUP3 ADD MSTORE PUSH1 0x64 SWAP1 REVERT JUMPDEST ISZERO PUSH2 0x22C6 JUMPI JUMP JUMPDEST PUSH1 0x40 MLOAD PUSH3 0x461BCD PUSH1 0xE5 SHL DUP2 MSTORE PUSH1 0x20 PUSH1 0x4 DUP3 ADD MSTORE PUSH1 0x1C PUSH1 0x24 DUP3 ADD MSTORE PUSH32 0x496E76616C696420646F63756D656E74206861736820666F726D617400000000 PUSH1 0x44 DUP3 ADD MSTORE PUSH1 0x64 SWAP1 REVERT JUMPDEST ISZERO PUSH2 0x2312 JUMPI JUMP JUMPDEST PUSH1 0x40 MLOAD PUSH3 0x461BCD PUSH1 0xE5 SHL DUP2 MSTORE PUSH1 0x20 PUSH1 0x4 DUP3 ADD MSTORE PUSH1 0x12 PUSH1 0x24 DUP3 ADD MSTORE PUSH18 0x4D6574616461746120746F6F206C61726765 PUSH1 0x70 SHL PUSH1 0x44 DUP3 ADD MSTORE PUSH1 0x64 SWAP1 REVERT JUMPDEST PUSH1 0x0 NOT DUP2 EQ PUSH2 0x235B JUMPI PUSH1 0x1 ADD SWAP1 JUMP JUMPDEST PUSH4 0x4E487B71 PUSH1 0xE0 SHL PUSH1 0x0 MSTORE PUSH1 0x11 PUSH1 0x4 MSTORE PUSH1 0x24 PUSH1 0x0 REVERT JUMPDEST SWAP2 SWAP1 DUP3 SLOAD PUSH1 0x1 PUSH1 0x40 SHL DUP2 LT ISZERO PUSH2 0x114D JUMPI PUSH2 0x2392 SWAP1 PUSH1 0x1 SWAP5 DUP6 DUP3 ADD DUP2 SSTORE PUSH2 0x1FA2 JUMP JUMPDEST PUSH2 0x25E8 JUMPI DUP2 MLOAD DUP2 SSTORE DUP4 DUP2 ADD SWAP4 PUSH1 0x20 SWAP1 DUP2 DUP5 ADD MLOAD DUP1 MLOAD SWAP7 PUSH1 0x1 PUSH1 0x1 PUSH1 0x40 SHL SUB SWAP8 DUP9 DUP2 GT PUSH2 0x114D JUMPI DUP1 PUSH2 0x23C3 DUP4 SLOAD PUSH2 0x1FBE JUMP JUMPDEST SWAP4 PUSH1 0x1F SWAP5 DUP6 DUP2 GT PUSH2 0x2596 JUMPI JUMPDEST POP DUP7 SWAP1 DUP6 DUP4 GT PUSH1 0x1 EQ PUSH2 0x2533 JUMPI PUSH1 0x0 SWAP3 PUSH2 0x2528 JUMPI JUMPDEST POP POP PUSH1 0x0 NOT PUSH1 0x3 DUP4 SWAP1 SHL SHR NOT AND SWAP1 DUP5 SHL OR SWAP1 SSTORE JUMPDEST PUSH1 0x2 DUP5 ADD SWAP3 PUSH1 0x40 DUP7 ADD MLOAD SWAP1 DUP2 MLOAD SWAP9 DUP10 GT PUSH2 0x114D JUMPI PUSH2 0x2416 DUP6 SLOAD PUSH2 0x1FBE JUMP JUMPDEST DUP4 DUP2 GT PUSH2 0x24E2 JUMPI JUMPDEST POP DUP1 SWAP3 DUP10 GT PUSH1 0x1 EQ PUSH2 0x247B JUMPI POP SWAP7 DUP1 SWAP3 DUP2 SWAP3 PUSH1 0x3 SWAP8 SWAP9 SWAP10 PUSH1 0x0 SWAP5 PUSH2 0x2470 JUMPI JUMPDEST POP POP SHL SWAP2 PUSH1 0x0 NOT SWAP1 DUP7 SHL SHR NOT AND OR SWAP1 SSTORE JUMPDEST ADD SWAP1 PUSH1 0x60 PUSH1 0x1 DUP1 PUSH1 0xA0 SHL SUB SWAP2 ADD MLOAD AND PUSH1 0x1 PUSH1 0x1 PUSH1 0x60 SHL SUB PUSH1 0xA0 SHL DUP3 SLOAD AND OR SWAP1 SSTORE JUMP JUMPDEST ADD MLOAD SWAP3 POP CODESIZE DUP1 PUSH2 0x243D JUMP JUMPDEST SWAP1 SWAP8 SWAP2 PUSH1 0x1F NOT DUP4 AND SWAP9 DUP6 PUSH1 0x0 MSTORE DUP3 PUSH1 0x0 KECCAK256 SWAP3 PUSH1 0x0 SWAP1 JUMPDEST DUP12 DUP3 LT PUSH2 0x24CB JUMPI POP POP DUP4 PUSH1 0x3 SWAP9 SWAP10 SWAP11 LT PUSH2 0x24B3 JUMPI JUMPDEST POP POP POP DUP2 SHL ADD SWAP1 SSTORE PUSH2 0x244E JUMP JUMPDEST ADD MLOAD PUSH1 0x0 NOT DUP4 DUP9 SHL PUSH1 0xF8 AND SHR NOT AND SWAP1 SSTORE CODESIZE DUP1 DUP1 PUSH2 0x24A6 JUMP JUMPDEST DUP1 DUP8 DUP6 SWAP7 DUP3 SWAP5 SWAP7 DUP7 ADD MLOAD DUP2 SSTORE ADD SWAP6 ADD SWAP4 ADD SWAP1 PUSH2 0x2491 JUMP JUMPDEST DUP6 PUSH1 0x0 MSTORE DUP2 PUSH1 0x0 KECCAK256 DUP5 DUP1 DUP13 ADD PUSH1 0x5 SHR DUP3 ADD SWAP3 DUP5 DUP14 LT PUSH2 0x251F JUMPI JUMPDEST ADD PUSH1 0x5 SHR ADD SWAP1 DUP6 SWAP1 JUMPDEST DUP3 DUP2 LT PUSH2 0x2513 JUMPI POP POP PUSH2 0x241E JUMP JUMPDEST PUSH1 0x0 DUP2 SSTORE ADD DUP6 SWAP1 PUSH2 0x2505 JUMP JUMPDEST SWAP3 POP DUP2 SWAP3 PUSH2 0x24FC JUMP JUMPDEST ADD MLOAD SWAP1 POP CODESIZE DUP1 PUSH2 0x23E4 JUMP JUMPDEST SWAP1 DUP7 SWAP4 POP PUSH1 0x1F NOT DUP4 AND SWAP2 DUP6 PUSH1 0x0 MSTORE DUP9 PUSH1 0x0 KECCAK256 SWAP3 PUSH1 0x0 JUMPDEST DUP11 DUP3 DUP3 LT PUSH2 0x2580 JUMPI POP POP DUP5 GT PUSH2 0x2567 JUMPI JUMPDEST POP POP POP DUP2 SHL ADD SWAP1 SSTORE PUSH2 0x23F8 JUMP JUMPDEST ADD MLOAD PUSH1 0x0 NOT PUSH1 0xF8 DUP5 PUSH1 0x3 SHL AND SHR NOT AND SWAP1 SSTORE CODESIZE DUP1 DUP1 PUSH2 0x255A JUMP JUMPDEST DUP4 DUP6 ADD MLOAD DUP7 SSTORE DUP11 SWAP8 SWAP1 SWAP6 ADD SWAP5 SWAP4 DUP5 ADD SWAP4 ADD PUSH2 0x2549 JUMP JUMPDEST SWAP1 SWAP2 POP PUSH1 0x0 DUP5 DUP2 MSTORE DUP8 DUP2 KECCAK256 DUP7 DUP1 DUP7 ADD PUSH1 0x5 SHR DUP3 ADD SWAP4 DUP11 DUP8 LT PUSH2 0x25DF JUMPI JUMPDEST SWAP2 DUP10 SWAP2 DUP8 SWAP7 SWAP6 SWAP5 SWAP4 ADD PUSH1 0x5 SHR ADD SWAP3 JUMPDEST DUP4 DUP2 LT PUSH2 0x25D1 JUMPI POP POP POP PUSH2 0x23CF JUMP JUMPDEST DUP3 DUP2 SSTORE DUP7 SWAP6 POP DUP10 SWAP2 ADD PUSH2 0x25C2 JUMP JUMPDEST SWAP4 POP DUP2 SWAP4 PUSH2 0x25B3 JUMP JUMPDEST PUSH4 0x4E487B71 PUSH1 0xE0 SHL PUSH1 0x0 MSTORE PUSH1 0x0 PUSH1 0x4 MSTORE PUSH1 0x24 PUSH1 0x0 REVERT JUMPDEST PUSH2 0x2616 SWAP1 PUSH1 0x20 PUSH1 0x40 MLOAD SWAP3 DUP3 DUP5 DUP1 SWAP5 MLOAD SWAP4 DUP5 SWAP3 ADD PUSH2 0x1E9C JUMP JUMPDEST DUP2 ADD SUB SWAP1 KECCAK256 SWAP1 JUMP JUMPDEST PUSH1 0xFF PUSH1 0x2 SLOAD AND PUSH2 0x262A JUMPI JUMP JUMPDEST PUSH1 0x40 MLOAD PUSH4 0xD93C0665 PUSH1 0xE0 SHL DUP2 MSTORE PUSH1 0x4 SWAP1 REVERT JUMPDEST PUSH1 0x2 PUSH1 0x0 SLOAD EQ PUSH2 0x264D JUMPI PUSH1 0x2 PUSH1 0x0 SSTORE JUMP JUMPDEST PUSH1 0x40 MLOAD PUSH4 0x3EE5AEB5 PUSH1 0xE0 SHL DUP2 MSTORE PUSH1 0x4 SWAP1 REVERT JUMPDEST ISZERO PUSH2 0x2666 JUMPI JUMP JUMPDEST PUSH1 0x40 MLOAD PUSH3 0x461BCD PUSH1 0xE5 SHL DUP2 MSTORE PUSH1 0x20 PUSH1 0x4 DUP3 ADD MSTORE PUSH1 0x17 PUSH1 0x24 DUP3 ADD MSTORE PUSH32 0x446F63756D656E7420646F6573206E6F74206578697374000000000000000000 PUSH1 0x44 DUP3 ADD MSTORE PUSH1 0x64 SWAP1 REVERT JUMPDEST ISZERO PUSH2 0x26B2 JUMPI JUMP JUMPDEST PUSH1 0x40 MLOAD PUSH3 0x461BCD PUSH1 0xE5 SHL DUP2 MSTORE PUSH1 0x20 PUSH1 0x4 DUP3 ADD MSTORE PUSH1 0x13 PUSH1 0x24 DUP3 ADD MSTORE PUSH19 0x111BD8DD5B595B9D081A5CC81C995D9BDAD959 PUSH1 0x6A SHL PUSH1 0x44 DUP3 ADD MSTORE PUSH1 0x64 SWAP1 REVERT JUMPDEST PUSH2 0x2705 PUSH1 0x40 SWAP3 SWAP6 SWAP5 SWAP4 SWAP6 PUSH1 0x60 DUP4 MSTORE PUSH1 0x60 DUP4 ADD SWAP1 PUSH2 0x1F21 JUMP JUMPDEST SWAP5 PUSH1 0x20 DUP3 ADD MSTORE ADD MSTORE JUMP JUMPDEST PUSH1 0x1 PUSH1 0x1 PUSH1 0x40 SHL SUB DUP2 GT PUSH2 0x114D JUMPI PUSH1 0x5 SHL PUSH1 0x20 ADD SWAP1 JUMP JUMPDEST SWAP1 PUSH2 0x2730 DUP3 PUSH2 0x270F JUMP JUMPDEST PUSH2 0x273D PUSH1 0x40 MLOAD SWAP2 DUP3 PUSH2 0x1DA7 JUMP JUMPDEST DUP3 DUP2 MSTORE DUP1 SWAP3 PUSH2 0x274E PUSH1 0x1F NOT SWAP2 PUSH2 0x270F JUMP JUMPDEST ADD SWAP1 PUSH1 0x0 JUMPDEST DUP3 DUP2 LT PUSH2 0x275F JUMPI POP POP POP JUMP JUMPDEST DUP1 PUSH1 0x60 PUSH1 0x20 DUP1 SWAP4 DUP6 ADD ADD MSTORE ADD PUSH2 0x2753 JUMP JUMPDEST DUP1 MLOAD DUP3 LT ISZERO PUSH2 0x1ED7 JUMPI PUSH1 0x20 SWAP2 PUSH1 0x5 SHL ADD ADD SWAP1 JUMP JUMPDEST PUSH1 0x0 DUP1 JUMPDEST DUP3 MLOAD DUP2 LT ISZERO PUSH2 0x2831 JUMPI DUP3 DUP2 ADD PUSH1 0x20 ADD MLOAD PUSH1 0x1 PUSH1 0x1 PUSH1 0xF8 SHL SUB NOT AND PUSH1 0x3 PUSH1 0xFC SHL DUP2 LT ISZERO DUP1 PUSH2 0x2823 JUMPI JUMPDEST ISZERO SWAP1 DUP2 PUSH2 0x27FE JUMPI JUMPDEST DUP2 PUSH2 0x27D7 JUMPI JUMPDEST POP PUSH2 0x27D1 JUMPI PUSH2 0x27CC SWAP1 PUSH2 0x234C JUMP JUMPDEST PUSH2 0x2788 JUMP JUMPDEST POP SWAP1 POP SWAP1 JUMP JUMPDEST PUSH1 0x41 PUSH1 0xF8 SHL DUP2 LT ISZERO SWAP2 POP DUP2 PUSH2 0x27EF JUMPI JUMPDEST POP ISZERO CODESIZE PUSH2 0x27BE JUMP JUMPDEST PUSH1 0x23 PUSH1 0xF9 SHL LT ISZERO SWAP1 POP CODESIZE PUSH2 0x27E7 JUMP JUMPDEST SWAP1 POP PUSH1 0x61 PUSH1 0xF8 SHL DUP2 LT ISZERO DUP1 PUSH2 0x2815 JUMPI JUMPDEST ISZERO SWAP1 PUSH2 0x27B8 JUMP JUMPDEST POP PUSH1 0x33 PUSH1 0xF9 SHL DUP2 GT ISZERO PUSH2 0x280E JUMP JUMPDEST POP PUSH1 0x39 PUSH1 0xF8 SHL DUP2 GT ISZERO PUSH2 0x27B0 JUMP JUMPDEST POP POP POP PUSH1 0x1 SWAP1 JUMP INVALID LOG2 PUSH5 0x6970667358 0x22 SLT KECCAK256 0xEC 0x2D SWAP3 SELFDESTRUCT GAS 0x23 0xE0 SLOAD 0xAD 0xAF 0xB7 0xB5 PUSH13 0x5487DE00C843B751833CF24E0C 0xBD PUSH2 0x6C87 BASEFEE PUSH11 0x64736F6C63430008140033 0x2F DUP8 DUP9 GT PUSH31 0x7EFF1D82E926EC794901D17C78024A50270940304540A733656F0D00000000 "},"methodIdentifiers":{"ADMIN_ROLE()":"75b238fc","ANCHOR_ROLE()":"fd5f48c5","DEFAULT_ADMIN_ROLE()":"a217fddf","REVOKE_ROLE()":"8b38b514","anchorDocument(string,string,string)":"4e6aa7b9","documentExists(string)":"3026785f","documentHistory(uint256,uint256)":"b31d2117","documents(string)":"b3dd697b","getContractStats()":"dfe6b5d6","getDocumentHistory(string)":"72e69752","getRoleAdmin(bytes32)":"248a9ca3","getUserDocuments(address)":"90a4b162","grantRole(bytes32,address)":"2f2ff15d","hasRole(bytes32,address)":"91d14854","maxDocumentsPerUser()":"c9e9c641","maxMetadataSize()":"e9e3e15c","minAnchoringFee()":"175fa636","pause()":"8456cb59","paused()":"5c975abb","renounceRole(bytes32,address)":"36568abe","revokeDocument(string,string)":"478e285c","revokeRole(bytes32,address)":"d547741f","supportsInterface(bytes4)":"01ffc9a7","unpause()":"3f4ba83a","updateConfiguration(uint256,uint256,uint256)":"c501651a","updateDocumentMetadata(string,string)":"10184161","userDocuments(address,uint256)":"577a1b92","verifyDocument(string)":"beee5eb7","withdrawBalance()":"5fd8c710"}}}}}