{
  "_format": "hh-sol-artifact-1",
  "contractName": "DocumentVerification",
  "sourceName": "contracts/DocumentVerification.sol",
  "abi": [
    {
      "inputs": [],
      "stateMutability": "nonpayable",
      "type": "constructor"
    },
    {
      "inputs": [],
      "name": "AccessControlBadConfirmation",
      "type": "error"
    },
    {
      "inputs": [
        {
          "internalType": "address",
          "name": "account",
          "type": "address"
        },
        {
          "internalType": "bytes32",
          "name": "neededRole",
          "type": "bytes32"
        }
      ],
      "name": "AccessControlUnauthorizedAccount",
      "type": "error"
    },
    {
      "inputs": [],
      "name": "EnforcedPause",
      "type": "error"
    },
    {
      "inputs": [],
      "name": "ExpectedPause",
      "type": "error"
    },
    {
      "inputs": [],
      "name": "ReentrancyGuardReentrantCall",
      "type": "error"
    },
    {
      "anonymous": false,
      "inputs": [
        {
          "indexed": true,
          "internalType": "string",
          "name": "documentHash",
          "type": "string"
        },
        {
          "indexed": true,
          "internalType": "string",
          "name": "userDid",
          "type": "string"
        },
        {
          "indexed": true,
          "internalType": "address",
          "name": "anchorer",
          "type": "address"
        },
        {
          "indexed": false,
          "internalType": "uint256",
          "name": "timestamp",
          "type": "uint256"
        },
        {
          "indexed": false,
          "internalType": "string",
          "name": "metadata",
          "type": "string"
        },
        {
          "indexed": false,
          "internalType": "uint256",
          "name": "documentId",
          "type": "uint256"
        }
      ],
      "name": "DocumentAnchored",
      "type": "event"
    },
    {
      "anonymous": false,
      "inputs": [
        {
          "indexed": true,
          "internalType": "string",
          "name": "documentHash",
          "type": "string"
        },
        {
          "indexed": false,
          "internalType": "string",
          "name": "reason",
          "type": "string"
        },
        {
          "indexed": true,
          "internalType": "address",
          "name": "revoker",
          "type": "address"
        },
        {
          "indexed": false,
          "internalType": "uint256",
          "name": "timestamp",
          "type": "uint256"
        },
        {
          "indexed": false,
          "internalType": "uint256",
          "name": "documentId",
          "type": "uint256"
        }
      ],
      "name": "DocumentRevoked",
      "type": "event"
    },
    {
      "anonymous": false,
      "inputs": [
        {
          "indexed": true,
          "internalType": "string",
          "name": "documentHash",
          "type": "string"
        },
        {
          "indexed": false,
          "internalType": "string",
          "name": "newMetadata",
          "type": "string"
        },
        {
          "indexed": true,
          "internalType": "address",
          "name": "updater",
          "type": "address"
        },
        {
          "indexed": false,
          "internalType": "uint256",
          "name": "timestamp",
          "type": "uint256"
        },
        {
          "indexed": false,
          "internalType": "uint256",
          "name": "documentId",
          "type": "uint256"
        }
      ],
      "name": "DocumentUpdated",
      "type": "event"
    },
    {
      "anonymous": false,
      "inputs": [
        {
          "indexed": false,
          "internalType": "address",
          "name": "account",
          "type": "address"
        }
      ],
      "name": "Paused",
      "type": "event"
    },
    {
      "anonymous": false,
      "inputs": [
        {
          "indexed": true,
          "internalType": "bytes32",
          "name": "role",
          "type": "bytes32"
        },
        {
          "indexed": true,
          "internalType": "bytes32",
          "name": "previousAdminRole",
          "type": "bytes32"
        },
        {
          "indexed": true,
          "internalType": "bytes32",
          "name": "newAdminRole",
          "type": "bytes32"
        }
      ],
      "name": "RoleAdminChanged",
      "type": "event"
    },
    {
      "anonymous": false,
      "inputs": [
        {
          "indexed": true,
          "internalType": "bytes32",
          "name": "role",
          "type": "bytes32"
        },
        {
          "indexed": true,
          "internalType": "address",
          "name": "account",
          "type": "address"
        },
        {
          "indexed": true,
          "internalType": "address",
          "name": "sender",
          "type": "address"
        }
      ],
      "name": "RoleGranted",
      "type": "event"
    },
    {
      "anonymous": false,
      "inputs": [
        {
          "indexed": true,
          "internalType": "bytes32",
          "name": "role",
          "type": "bytes32"
        },
        {
          "indexed": true,
          "internalType": "address",
          "name": "account",
          "type": "address"
        },
        {
          "indexed": true,
          "internalType": "address",
          "name": "sender",
          "type": "address"
        }
      ],
      "name": "RoleRevoked",
      "type": "event"
    },
    {
      "anonymous": false,
      "inputs": [
        {
          "indexed": false,
          "internalType": "address",
          "name": "account",
          "type": "address"
        }
      ],
      "name": "Unpaused",
      "type": "event"
    },
    {
      "inputs": [],
      "name": "ADMIN_ROLE",
      "outputs": [
        {
          "internalType": "bytes32",
          "name": "",
          "type": "bytes32"
        }
      ],
      "stateMutability": "view",
      "type": "function"
    },
    {
      "inputs": [],
      "name": "ANCHOR_ROLE",
      "outputs": [
        {
          "internalType": "bytes32",
          "name": "",
          "type": "bytes32"
        }
      ],
      "stateMutability": "view",
      "type": "function"
    },
    {
      "inputs": [],
      "name": "DEFAULT_ADMIN_ROLE",
      "outputs": [
        {
          "internalType": "bytes32",
          "name": "",
          "type": "bytes32"
        }
      ],
      "stateMutability": "view",
      "type": "function"
    },
    {
      "inputs": [],
      "name": "REVOKE_ROLE",
      "outputs": [
        {
          "internalType": "bytes32",
          "name": "",
          "type": "bytes32"
        }
      ],
      "stateMutability": "view",
      "type": "function"
    },
    {
      "inputs": [
        {
          "internalType": "string",
          "name": "documentHash",
          "type": "string"
        },
        {
          "internalType": "string",
          "name": "userDid",
          "type": "string"
        },
        {
          "internalType": "string",
          "name": "metadata",
          "type": "string"
        }
      ],
      "name": "anchorDocument",
      "outputs": [],
      "stateMutability": "payable",
      "type": "function"
    },
    {
      "inputs": [
        {
          "internalType": "string",
          "name": "",
          "type": "string"
        }
      ],
      "name": "documentExists",
      "outputs": [
        {
          "internalType": "bool",
          "name": "",
          "type": "bool"
        }
      ],
      "stateMutability": "view",
      "type": "function"
    },
    {
      "inputs": [
        {
          "internalType": "uint256",
          "name": "",
          "type": "uint256"
        },
        {
          "internalType": "uint256",
          "name": "",
          "type": "uint256"
        }
      ],
      "name": "documentHistory",
      "outputs": [
        {
          "internalType": "uint256",
          "name": "timestamp",
          "type": "uint256"
        },
        {
          "internalType": "string",
          "name": "action",
          "type": "string"
        },
        {
          "internalType": "string",
          "name": "metadata",
          "type": "string"
        },
        {
          "internalType": "address",
          "name": "actor",
          "type": "address"
        }
      ],
      "stateMutability": "view",
      "type": "function"
    },
    {
      "inputs": [
        {
          "internalType": "string",
          "name": "",
          "type": "string"
        }
      ],
      "name": "documents",
      "outputs": [
        {
          "internalType": "string",
          "name": "userDid",
          "type": "string"
        },
        {
          "internalType": "uint256",
          "name": "timestamp",
          "type": "uint256"
        },
        {
          "internalType": "string",
          "name": "metadata",
          "type": "string"
        },
        {
          "internalType": "bool",
          "name": "exists",
          "type": "bool"
        },
        {
          "internalType": "bool",
          "name": "revoked",
          "type": "bool"
        },
        {
          "internalType": "string",
          "name": "revocationReason",
          "type": "string"
        },
        {
          "internalType": "uint256",
          "name": "revocationTimestamp",
          "type": "uint256"
        },
        {
          "internalType": "address",
          "name": "anchorer",
          "type": "address"
        },
        {
          "internalType": "address",
          "name": "revoker",
          "type": "address"
        },
        {
          "internalType": "uint256",
          "name": "documentId",
          "type": "uint256"
        },
        {
          "internalType": "uint256",
          "name": "version",
          "type": "uint256"
        }
      ],
      "stateMutability": "view",
      "type": "function"
    },
    {
      "inputs": [],
      "name": "getContractStats",
      "outputs": [
        {
          "internalType": "uint256",
          "name": "totalDocuments",
          "type": "uint256"
        },
        {
          "internalType": "uint256",
          "name": "totalRevoked",
          "type": "uint256"
        },
        {
          "internalType": "uint256",
          "name": "maxMetadataSize",
          "type": "uint256"
        },
        {
          "internalType": "uint256",
          "name": "maxDocumentsPerUser",
          "type": "uint256"
        },
        {
          "internalType": "uint256",
          "name": "minAnchoringFee",
          "type": "uint256"
        }
      ],
      "stateMutability": "view",
      "type": "function"
    },
    {
      "inputs": [
        {
          "internalType": "string",
          "name": "documentHash",
          "type": "string"
        }
      ],
      "name": "getDocumentHistory",
      "outputs": [
        {
          "internalType": "uint256[]",
          "name": "timestamps",
          "type": "uint256[]"
        },
        {
          "internalType": "string[]",
          "name": "actions",
          "type": "string[]"
        },
        {
          "internalType": "string[]",
          "name": "metadatas",
          "type": "string[]"
        },
        {
          "internalType": "address[]",
          "name": "actors",
          "type": "address[]"
        }
      ],
      "stateMutability": "view",
      "type": "function"
    },
    {
      "inputs": [
        {
          "internalType": "bytes32",
          "name": "role",
          "type": "bytes32"
        }
      ],
      "name": "getRoleAdmin",
      "outputs": [
        {
          "internalType": "bytes32",
          "name": "",
          "type": "bytes32"
        }
      ],
      "stateMutability": "view",
      "type": "function"
    },
    {
      "inputs": [
        {
          "internalType": "address",
          "name": "user",
          "type": "address"
        }
      ],
      "name": "getUserDocuments",
      "outputs": [
        {
          "internalType": "uint256[]",
          "name": "documentIds",
          "type": "uint256[]"
        }
      ],
      "stateMutability": "view",
      "type": "function"
    },
    {
      "inputs": [
        {
          "internalType": "bytes32",
          "name": "role",
          "type": "bytes32"
        },
        {
          "internalType": "address",
          "name": "account",
          "type": "address"
        }
      ],
      "name": "grantRole",
      "outputs": [],
      "stateMutability": "nonpayable",
      "type": "function"
    },
    {
      "inputs": [
        {
          "internalType": "bytes32",
          "name": "role",
          "type": "bytes32"
        },
        {
          "internalType": "address",
          "name": "account",
          "type": "address"
        }
      ],
      "name": "hasRole",
      "outputs": [
        {
          "internalType": "bool",
          "name": "",
          "type": "bool"
        }
      ],
      "stateMutability": "view",
      "type": "function"
    },
    {
      "inputs": [],
      "name": "maxDocumentsPerUser",
      "outputs": [
        {
          "internalType": "uint256",
          "name": "",
          "type": "uint256"
        }
      ],
      "stateMutability": "view",
      "type": "function"
    },
    {
      "inputs": [],
      "name": "maxMetadataSize",
      "outputs": [
        {
          "internalType": "uint256",
          "name": "",
          "type": "uint256"
        }
      ],
      "stateMutability": "view",
      "type": "function"
    },
    {
      "inputs": [],
      "name": "minAnchoringFee",
      "outputs": [
        {
          "internalType": "uint256",
          "name": "",
          "type": "uint256"
        }
      ],
      "stateMutability": "view",
      "type": "function"
    },
    {
      "inputs": [],
      "name": "pause",
      "outputs": [],
      "stateMutability": "nonpayable",
      "type": "function"
    },
    {
      "inputs": [],
      "name": "paused",
      "outputs": [
        {
          "internalType": "bool",
          "name": "",
          "type": "bool"
        }
      ],
      "stateMutability": "view",
      "type": "function"
    },
    {
      "inputs": [
        {
          "internalType": "bytes32",
          "name": "role",
          "type": "bytes32"
        },
        {
          "internalType": "address",
          "name": "callerConfirmation",
          "type": "address"
        }
      ],
      "name": "renounceRole",
      "outputs": [],
      "stateMutability": "nonpayable",
      "type": "function"
    },
    {
      "inputs": [
        {
          "internalType": "string",
          "name": "documentHash",
          "type": "string"
        },
        {
          "internalType": "string",
          "name": "reason",
          "type": "string"
        }
      ],
      "name": "revokeDocument",
      "outputs": [],
      "stateMutability": "nonpayable",
      "type": "function"
    },
    {
      "inputs": [
        {
          "internalType": "bytes32",
          "name": "role",
          "type": "bytes32"
        },
        {
          "internalType": "address",
          "name": "account",
          "type": "address"
        }
      ],
      "name": "revokeRole",
      "outputs": [],
      "stateMutability": "nonpayable",
      "type": "function"
    },
    {
      "inputs": [
        {
          "internalType": "bytes4",
          "name": "interfaceId",
          "type": "bytes4"
        }
      ],
      "name": "supportsInterface",
      "outputs": [
        {
          "internalType": "bool",
          "name": "",
          "type": "bool"
        }
      ],
      "stateMutability": "view",
      "type": "function"
    },
    {
      "inputs": [],
      "name": "unpause",
      "outputs": [],
      "stateMutability": "nonpayable",
      "type": "function"
    },
    {
      "inputs": [
        {
          "internalType": "uint256",
          "name": "newMaxMetadataSize",
          "type": "uint256"
        },
        {
          "internalType": "uint256",
          "name": "newMaxDocumentsPerUser",
          "type": "uint256"
        },
        {
          "internalType": "uint256",
          "name": "newMinAnchoringFee",
          "type": "uint256"
        }
      ],
      "name": "updateConfiguration",
      "outputs": [],
      "stateMutability": "nonpayable",
      "type": "function"
    },
    {
      "inputs": [
        {
          "internalType": "string",
          "name": "documentHash",
          "type": "string"
        },
        {
          "internalType": "string",
          "name": "newMetadata",
          "type": "string"
        }
      ],
      "name": "updateDocumentMetadata",
      "outputs": [],
      "stateMutability": "nonpayable",
      "type": "function"
    },
    {
      "inputs": [
        {
          "internalType": "address",
          "name": "",
          "type": "address"
        },
        {
          "internalType": "uint256",
          "name": "",
          "type": "uint256"
        }
      ],
      "name": "userDocuments",
      "outputs": [
        {
          "internalType": "uint256",
          "name": "",
          "type": "uint256"
        }
      ],
      "stateMutability": "view",
      "type": "function"
    },
    {
      "inputs": [
        {
          "internalType": "string",
          "name": "documentHash",
          "type": "string"
        }
      ],
      "name": "verifyDocument",
      "outputs": [
        {
          "internalType": "bool",
          "name": "exists",
          "type": "bool"
        },
        {
          "internalType": "string",
          "name": "userDid",
          "type": "string"
        },
        {
          "internalType": "uint256",
          "name": "timestamp",
          "type": "uint256"
        },
        {
          "internalType": "string",
          "name": "metadata",
          "type": "string"
        },
        {
          "internalType": "bool",
          "name": "revoked",
          "type": "bool"
        },
        {
          "internalType": "uint256",
          "name": "documentId",
          "type": "uint256"
        }
      ],
      "stateMutability": "view",
      "type": "function"
    },
    {
      "inputs": [],
      "name": "withdrawBalance",
      "outputs": [],
      "stateMutability": "nonpayable",
      "type": "function"
    },
    {
      "stateMutability": "payable",
      "type": "receive"
    }
  ],
  "bytecode": "0x60806040523462000075576001600055600060075560006008556000600955612710600a556103e8600b5566038d7ea4c68000600c5562000040336200007a565b506200004c33620000fb565b5062000058336200019e565b5062000064336200023c565b5060405161286f9081620002db8239f35b600080fd5b6001600160a01b031660008181527fa6eef7e35abe7026729641147f7915573c7e97b47efa546f5f6e3230263bcb49602052604081205490919060ff16620000f75781805260016020526040822081835260205260408220600160ff19825416179055339160008051602062002b4a8339815191528180a4600190565b5090565b6001600160a01b031660008181527f50efbde2d46c37e9785f1791697f77e94bb7b701e19f1930a668820722d3769460205260408120549091907fa49807205ce4d355092ef5a8a18f56e8913cf4a201fbe287825b095693c217759060ff16620001995780835260016020526040832082845260205260408320600160ff1982541617905560008051602062002b4a833981519152339380a4600190565b505090565b6001600160a01b031660008181527f220038dd9bf29a5aa35dde1e10c90c54e92809770d3e12470dc41d08d0241d4760205260408120549091907f08b5ce2e3163e37059f807346dad4dd6235ed44f92dced22992662cb457063629060ff16620001995780835260016020526040832082845260205260408320600160ff1982541617905560008051602062002b4a833981519152339380a4600190565b6001600160a01b031660008181527f5484fcf1c8b2251e43fe4c0eae0ae144bbe4ae3c104340c02444d8c4a0739a7260205260408120549091907f5297e68f3a27f04914f2c6db0ad63b5e5c8173cebcc1a5341df045cf6dad7adc9060ff16620001995780835260016020526040832082845260205260408320600160ff1982541617905560008051602062002b4a833981519152339380a460019056fe608080604052600436101561001d575b50361561001b57600080fd5b005b60003560e01c90816301ffc9a714611d02575080631018416114611a6d578063175fa63614611a4f578063248a9ca314611a205780632f2ff15d146119e15780633026785f1461199357806336568abe1461194c5780633f4ba83a146118e2578063478e285c146114ff5780634e6aa7b914610ccc578063577a1b9214610c745780635c975abb14610c515780635fd8c71014610b7c57806372e697521461081f57806375b238fc146107e45780638456cb591461078a5780638b38b5141461074f57806390a4b162146106c057806391d1485414610673578063a217fddf14610657578063b31d2117146105be578063b3dd697b146104b2578063beee5eb714610349578063c501651a1461025f578063c9e9c64114610241578063d547741f14610202578063dfe6b5d6146101c7578063e9e3e15c146101a95763fd5f48c514610169573861000f565b346101a45760003660031901126101a45760206040517f08b5ce2e3163e37059f807346dad4dd6235ed44f92dced22992662cb457063628152f35b600080fd5b346101a45760003660031901126101a4576020600a54604051908152f35b346101a45760003660031901126101a45760a06008546009546040519182526020820152600060408201526000606082015260006080820152f35b346101a45760403660031901126101a45761001b600435610221611e70565b9080600052600160205261023c600160406000200154612156565b6121fc565b346101a45760003660031901126101a4576020600b54604051908152f35b346101a45760603660031901126101a45760243560043561027e6120fa565b80156102f357811561029857600a55600b55604435600c55005b60405162461bcd60e51b815260206004820152602d60248201527f4d617820646f63756d656e7473207065722075736572206d757374206265206760448201526c0726561746572207468616e203609c1b6064820152608490fd5b60405162461bcd60e51b815260206004820152602860248201527f4d6178206d657461646174612073697a65206d75737420626520677265617465604482015267072207468616e20360c41b6064820152608490fd5b346101a45760203660031901126101a4576004356001600160401b0381116101a457602061037e6103af923690600401611de3565b61038b6040825114612273565b61039c61039782612784565b6122bf565b8160405193828580945193849201611e9c565b810160038152030190206040516103c581611d70565b6103ce82611ff8565b8152600182015491602082019283526103e960028201611ff8565b90604083019182526104a36003820154926060850160ff85161515815260ff608087019560081c161515855261042160048501611ff8565b60a0870152600584015460c087015260018060a01b038060068601541660e088015260078501541661010087015260096008850154948561012089015201546101408701525115159451955190519351151593610490604051978897885260c0602089015260c0880190611f21565b9160408701528582036060870152611f21565b91608084015260a08301520390f35b346101a45760203660031901126101a4576004356001600160401b0381116101a45761056a6104eb602061039c81943690600401611de3565b810160038152030190206104fe81611ff8565b9060018101549061051160028201611ff8565b60038201549361059d61052660048501611ff8565b9560058501549660ff61057a60018060a01b03958660068a0154169660078a01541697600960088b01549a01549a6040519e8f9e8f94610160808752860190611f21565b9301528c820360408e0152611f21565b92818116151560608c015260081c16151560808a015288820360a08a0152611f21565b9460c087015260e08601526101008501526101208401526101408301520390f35b346101a45760403660031901126101a457602435600435600052600560205260406000209081548110156101a4576105f591611fa2565b50805461060460018301611ff8565b9161064d61061460028301611ff8565b91600360018060a01b03910154169161063f6040519586958652608060208701526080860190611f21565b908482036040860152611f21565b9060608301520390f35b346101a45760003660031901126101a457602060405160008152f35b346101a45760403660031901126101a45761068c611e70565b600435600052600160205260406000209060018060a01b0316600052602052602060ff604060002054166040519015158152f35b346101a4576020806003193601126101a4576001600160a01b036106e2611e86565b1660005260068152604060002090604051808383829554938481520190600052836000209260005b858282106107395750505061072192500383611da7565b610735604051928284938452830190611eed565b0390f35b855484526001958601958895509301920161070a565b346101a45760003660031901126101a45760206040517f5297e68f3a27f04914f2c6db0ad63b5e5c8173cebcc1a5341df045cf6dad7adc8152f35b346101a45760003660031901126101a4576107a36120fa565b6107ab61261e565b600160ff1960025416176002557f62e78cea01bee320cd4e420270b5ea74000d11b0c9f74754ebdbfc544b05a2586020604051338152a1005b346101a45760003660031901126101a45760206040517fa49807205ce4d355092ef5a8a18f56e8913cf4a201fbe287825b095693c217758152f35b346101a4576020806003193601126101a4576004356001600160401b0381116101a457610850903690600401611de3565b61085d6040825114612273565b61086961039782612784565b6040519061089760ff82519385818186019661088681838a611e9c565b81016004815203019020541661265f565b6108a960405192839251928391611e9c565b8101908281600393848152030190206040516108c481611d70565b6108cd82611ff8565b815260019182810154858301526002936108e8858301611ff8565b6040840152808201549160ff60609381811615158587015260081c161515608085015261091760048201611ff8565b60a0850152600581015460c085015260018060a01b03938460068301541660e08201528460078301541661010082015261014060096008840154938461012085015201549101526000526005865260406000208054916109768361270f565b966109846040519889611da7565b8388526000928352888320918989015b858510610b27575050505050508351946109ad8661270f565b946109bb6040519687611da7565b868652601f1996876109cc8261270f565b0136848901376109db81612726565b6109e482612726565b916109ee8161270f565b936109fc6040519586611da7565b818552610a088261270f565b8587019b01368c3760005b828110610a8f57505050839291610a49610a5792610a3c6040519b60808d5260808d0190611eed565b908b8203878d0152611f46565b9089820360408b0152611f46565b938785039088015251928381520195926000905b838210610a785786880387f35b845181168852968201969382019390850190610a6b565b808b610ab1829c9e9c610aa9610b1b95879e9c9d9e612770565b515192612770565b5288610abd8285612770565b510151610aca8287612770565b52610ad58186612770565b506040610ae28285612770565b510151610aef8288612770565b52610afa8187612770565b50878a610b078386612770565b51015116610b158289612770565b5261234c565b9a989a97969597610a13565b9760048b829c98999a604051610b3c81611d55565b87548152610b4b858901611ff8565b83820152610b5a878901611ff8565b60408201528c86890154168c8201528152019401940193929997969599610994565b346101a45760003660031901126101a457610b956120fa565b478015610c1357600080808093335af13d15610c0e573d610bb581611dc8565b90610bc36040519283611da7565b8152600060203d92013e5b15610bd557005b60405162461bcd60e51b815260206004820152601160248201527015da5d1a191c985dd85b0819985a5b1959607a1b6044820152606490fd5b610bce565b60405162461bcd60e51b81526020600482015260166024820152754e6f2062616c616e636520746f20776974686472617760501b6044820152606490fd5b346101a45760003660031901126101a457602060ff600254166040519015158152f35b346101a45760403660031901126101a457610c8d611e86565b6001600160a01b03166000908152600660205260409020805460243591908210156101a457602091610cbe91611ebf565b90546040519160031b1c8152f35b60603660031901126101a4576004356001600160401b0381116101a457610cf7903690600401611de3565b6024356001600160401b0381116101a457610d16903690600401611de3565b60449081356001600160401b0381116101a457610d37903690600401611de3565b91610d4061263c565b610d4861261e565b610d5061209e565b610d5d6040855114612273565b610d6961039785612784565b600a8251106114c65760ff82511161148e57610d8a8351600a54101561230b565b60ff6040516020818751610da18183858c01611e9c565b81016004815203019020541661144a57600c54341061140657336000526006602052604060002054600b5411156113c25750610dde60075461234c565b9283600755604051610def81611d70565b82815242602082015283604082015260016060820152600060808201526040518060208101106001600160401b0360208301111761114d57602081016040526000815260a0820152600060c08201523360e082015260006101008201528461012082015260016101408201526040516020818451610e708183858901611e9c565b6003818301528101030190209080518051906001600160401b03821161114d578190610e9c8554611fbe565b601f8111611372575b50602090601f8311600114611306576000926112fb575b50508160011b916000199060031b1c19161782555b6020810151600183015560408101518051906001600160401b03821161114d578190610f006002860154611fbe565b601f81116112a8575b50602090601f83116001146112365760009261122b575b50508160011b916000199060031b1c19161760028301555b6003820160608201511515815460ff61ff006080860151151560081b1692169061ffff19161717905560a08101518051906001600160401b03821161114d57610f846004850154611fbe565b601f81116111e4575b50602090601f831160011461116e5791806009949261014094600092611163575b50508160011b916000199060031b1c19161760048501555b60c081015160058501556006840160018060a01b03908160e084015116906001600160601b0360a01b91828254161790556007860191610100840151169082541617905561012081015160088501550151910155604051602081835161102f8183858801611e9c565b81016004815203019020600160ff1982541617905533600052600660205260406000208054600160401b81101561114d577f55c2ea922c3a5fd1509d0c21dc15b4bd366d5f3aca799df557c19c1dae262572926110988261111e94600161111895018155611ebf565b81549060031b9089821b91600019901b19161790558660005260056020526111056040600020604051906110cb82611d55565b4282526040516110da81611d8c565b6008815267105390d213d4915160c21b60208201526020830152886040830152336060830152612371565b61111060085461234c565b6008556125fe565b926125fe565b9261113a60405191428352606060208401526060830190611f21565b9460408201528033950390a46001600055005b634e487b7160e01b600052604160045260246000fd5b015190508a80610fae565b906004850160005260206000209160005b601f19851681106111cc575092600994926001926101409583601f198116106111b3575b505050811b016004850155610fc6565b015160001960f88460031b161c191690558a80806111a3565b9192602060018192868501518155019401920161117f565b600485016000526020600020601f840160051c810160208510611224575b601f830160051c82018110611218575050610f8d565b60008155600101611202565b5080611202565b015190508880610f20565b9250600285016000526020600020906000935b601f198416851061128d576001945083601f19811610611274575b505050811b016002830155610f38565b015160001960f88460031b161c19169055888080611264565b81810151835560209485019460019093019290910190611249565b909150600285016000526020600020601f840160051c8101602085106112f4575b90849392915b601f830160051c820181106112e5575050610f09565b600081558594506001016112cf565b50806112c9565b015190508880610ebc565b9250846000526020600020906000935b601f1984168510611357576001945083601f1981161061133e575b505050811b018255610ed1565b015160001960f88460031b161c19169055888080611331565b81810151835560209485019460019093019290910190611316565b909150846000526020600020601f840160051c8101602085106113bb575b90849392915b601f830160051c820181106113ac575050610ea5565b60008155859450600101611396565b5080611390565b6064907f5573657220646f63756d656e74206c696d6974206578636565646564000000006040519162461bcd60e51b835260206004840152601c6024840152820152fd5b6064907f496e73756666696369656e7420616e63686f72696e67206665650000000000006040519162461bcd60e51b835260206004840152601a6024840152820152fd5b6064907f446f63756d656e7420616c7265616479206578697374730000000000000000006040519162461bcd60e51b83526020600484015260176024840152820152fd5b60649070557365722044494420746f6f206c6f6e6760781b6040519162461bcd60e51b83526020600484015260116024840152820152fd5b60649071155cd95c88111251081d1bdbc81cda1bdc9d60721b6040519162461bcd60e51b83526020600484015260126024840152820152fd5b346101a45761150d36611e2a565b61151561263c565b61151d61261e565b3360009081527f5484fcf1c8b2251e43fe4c0eae0ae144bbe4ae3c104340c02444d8c4a0739a72602090815260409091205460019391907f5297e68f3a27f04914f2c6db0ad63b5e5c8173cebcc1a5341df045cf6dad7adc9060ff16156118c4575061158c6040835114612273565b61159861039783612784565b6040516115b460ff845192848181880195610886818389611e9c565b604051906115e660ff85516115ca818686611e9c565b84018486600396838880955203019020015460081c16156126ab565b84511561187f576103e885511161183a578261160d91604051809381928851928391611e9c565b8101848152030190209080820161010061ff001982541617905560048201908551906001600160401b03821161114d576116478354611fbe565b601f81116117f1575b50878588601f85116001146117555794848061171c957eb761edbeec2b2c2556725f3190e3757b743d4d4beb14b00071207f07e28b879a976008966117429b966117319b60009561174a575b50501b92600019911b1c19161790555b42600582015560078101336001600160601b0360a01b82541617905501918254600052600581526040600020604051916116e583611d55565b428352604051906116f582611d8c565b600782526614915593d2d15160ca1b81830152830152886040830152336060830152612371565b61172760095461234c565b60095554936125fe565b9260405191829133964290846126ed565b0390a3600055005b01519350388f61169c565b50909291601f198316918560005289886000209360005b8181106117d8575094600894611742999461173199947eb761edbeec2b2c2556725f3190e3757b743d4d4beb14b00071207f07e28b879c99948461171c9a106117be575b50505050811b0190556116ac565b01519060f884600019921b161c191690558d80808e6117b0565b9183015185558c9690940193918901918b918a0161176c565b8360005285600020601f840160051c810191878510611830575b601f0160051c019089905b828110611824575050611650565b60008155018990611816565b909150819061180b565b60405162461bcd60e51b815260048101849052601a60248201527f5265766f636174696f6e20726561736f6e20746f6f206c6f6e670000000000006044820152606490fd5b60405162461bcd60e51b815260048101849052601a60248201527f5265766f636174696f6e20726561736f6e2072657175697265640000000000006044820152606490fd5b6044906040519063e2517d3f60e01b82523360048301526024820152fd5b346101a45760003660031901126101a4576118fb6120fa565b60025460ff81161561193a5760ff19166002557f5db9ee0a495bf2e6ff9c91a7834c1ba4fdd244a5e8aa4e537bd38aeae4b073aa6020604051338152a1005b604051638dfc202b60e01b8152600490fd5b346101a45760403660031901126101a457611965611e70565b336001600160a01b038216036119815761001b906004356121fc565b60405163334bd91960e11b8152600490fd5b346101a45760203660031901126101a4576004356001600160401b0381116101a45760ff6119cb602061039c81943690600401611de3565b8101600481520301902054166040519015158152f35b346101a45760403660031901126101a45761001b600435611a00611e70565b90806000526001602052611a1b600160406000200154612156565b61217c565b346101a45760203660031901126101a45760043560005260016020526020600160406000200154604051908152f35b346101a45760003660031901126101a4576020600c54604051908152f35b346101a457611a7b36611e2a565b90611a8461263c565b611a8c61261e565b611a9461209e565b611aa16040825114612273565b611aad61039782612784565b611abc8251600a54101561230b565b60ff611b1e6040518351611adf60209483868095818a0195610886818389611e9c565b611b0d60ff600360405185818a51611af881838a611e9c565b810184815203019020015460081c16156126ab565b604051809381928751928391611e9c565b810160038152030190206002810184516001600160401b03811161114d57611b468254611fbe565b601f8111611cbc575b5083601f8211600114611c2a576008611c159461173194847f757c4dae4ef0e053674623dbf3e6ab05ed107c11509bf3def329e305aff3184d9895611c0e95600091611c1f575b508160011b916000199060031b1c19161790555b60098101611bb8815461234c565b90550191825460005260058152604060002060405191611bd783611d55565b42835260405190611be782611d8c565b60078252661554111055115160ca1b81830152830152886040830152336060830152612371565b54936125fe565b0390a36001600055005b90508b01518c611b96565b601f1982169083600052856000209160005b818110611ca557509461173194600185611c0e956008957f757c4dae4ef0e053674623dbf3e6ab05ed107c11509bf3def329e305aff3184d9b98611c159b10611c8c575b5050811b019055611baa565b8d015160001960f88460031b161c191690558c80611c80565b91928760018192868d015181550194019201611c3c565b8260005284600020601f830160051c810191868410611cf8575b601f0160051c01905b818110611cec5750611b4f565b60008155600101611cdf565b9091508190611cd6565b346101a45760203660031901126101a4576004359063ffffffff60e01b82168092036101a457602091637965db0b60e01b8114908115611d44575b5015158152f35b6301ffc9a760e01b14905083611d3d565b608081019081106001600160401b0382111761114d57604052565b61016081019081106001600160401b0382111761114d57604052565b604081019081106001600160401b0382111761114d57604052565b90601f801991011681019081106001600160401b0382111761114d57604052565b6001600160401b03811161114d57601f01601f191660200190565b81601f820112156101a457803590611dfa82611dc8565b92611e086040519485611da7565b828452602083830101116101a457816000926020809301838601378301015290565b9060406003198301126101a4576001600160401b036004358181116101a45783611e5691600401611de3565b926024359182116101a457611e6d91600401611de3565b90565b602435906001600160a01b03821682036101a457565b600435906001600160a01b03821682036101a457565b60005b838110611eaf5750506000910152565b8181015183820152602001611e9f565b8054821015611ed75760005260206000200190600090565b634e487b7160e01b600052603260045260246000fd5b90815180825260208080930193019160005b828110611f0d575050505090565b835185529381019392810192600101611eff565b90602091611f3a81518092818552858086019101611e9c565b601f01601f1916010190565b908082519081815260208091019281808460051b8301019501936000915b848310611f745750505050505090565b9091929394958480611f92600193601f198682030187528a51611f21565b9801930193019194939290611f64565b8054821015611ed75760005260206000209060021b0190600090565b90600182811c92168015611fee575b6020831014611fd857565b634e487b7160e01b600052602260045260246000fd5b91607f1691611fcd565b906040519182600082549261200c84611fbe565b90818452600194858116908160001461207b5750600114612038575b505061203692500383611da7565b565b9093915060005260209081600020936000915b81831061206357505061203693508201013880612028565b8554888401850152948501948794509183019161204b565b91505061203694506020925060ff191682840152151560051b8201013880612028565b3360009081527f220038dd9bf29a5aa35dde1e10c90c54e92809770d3e12470dc41d08d0241d4760205260409020547f08b5ce2e3163e37059f807346dad4dd6235ed44f92dced22992662cb457063629060ff16156118c45750565b3360009081527f50efbde2d46c37e9785f1791697f77e94bb7b701e19f1930a668820722d3769460205260409020547fa49807205ce4d355092ef5a8a18f56e8913cf4a201fbe287825b095693c217759060ff16156118c45750565b80600052600160205260406000203360005260205260ff60406000205416156118c45750565b906000918083526001602052604083209160018060a01b03169182845260205260ff604084205416156000146121f75780835260016020526040832082845260205260408320600160ff198254161790557f2f8788117e7eff1d82e926ec794901d17c78024a50270940304540a733656f0d339380a4600190565b505090565b906000918083526001602052604083209160018060a01b03169182845260205260ff6040842054166000146121f7578083526001602052604083208284526020526040832060ff1981541690557ff6391f5c32d9c69d2a47ea670b442974b53935d1edc7fd64eb21e047a839171b339380a4600190565b1561227a57565b60405162461bcd60e51b815260206004820152601c60248201527f496e76616c696420646f63756d656e742068617368206c656e677468000000006044820152606490fd5b156122c657565b60405162461bcd60e51b815260206004820152601c60248201527f496e76616c696420646f63756d656e74206861736820666f726d6174000000006044820152606490fd5b1561231257565b60405162461bcd60e51b81526020600482015260126024820152714d6574616461746120746f6f206c6172676560701b6044820152606490fd5b600019811461235b5760010190565b634e487b7160e01b600052601160045260246000fd5b91908254600160401b81101561114d57612392906001948582018155611fa2565b6125e8578151815583810193602090818401518051966001600160401b039788811161114d57806123c38354611fbe565b93601f94858111612596575b50869085831160011461253357600092612528575b5050600019600383901b1c191690841b1790555b6002840192604086015190815198891161114d576124168554611fbe565b8381116124e2575b508092891160011461247b575096809281926003979899600094612470575b50501b9160001990861b1c19161790555b0190606060018060a01b03910151166001600160601b0360a01b825416179055565b01519250388061243d565b909791601f198316988560005282600020926000905b8b82106124cb57505083600398999a106124b3575b505050811b01905561244e565b015160001983881b60f8161c191690553880806124a6565b808785968294968601518155019501930190612491565b856000528160002084808c0160051c820192848d1061251f575b0160051c019085905b82811061251357505061241e565b60008155018590612505565b925081926124fc565b0151905038806123e4565b90869350601f1983169185600052886000209260005b8a8282106125805750508411612567575b505050811b0190556123f8565b015160001960f88460031b161c1916905538808061255a565b8385015186558a97909501949384019301612549565b90915060008481528781208680860160051c8201938a87106125df575b91899187969594930160051c01925b8381106125d1575050506123cf565b8281558695508991016125c2565b935081936125b3565b634e487b7160e01b600052600060045260246000fd5b61261690602060405192828480945193849201611e9c565b810103902090565b60ff6002541661262a57565b60405163d93c066560e01b8152600490fd5b60026000541461264d576002600055565b604051633ee5aeb560e01b8152600490fd5b1561266657565b60405162461bcd60e51b815260206004820152601760248201527f446f63756d656e7420646f6573206e6f742065786973740000000000000000006044820152606490fd5b156126b257565b60405162461bcd60e51b8152602060048201526013602482015272111bd8dd5b595b9d081a5cc81c995d9bdad959606a1b6044820152606490fd5b61270560409295949395606083526060830190611f21565b9460208201520152565b6001600160401b03811161114d5760051b60200190565b906127308261270f565b61273d6040519182611da7565b828152809261274e601f199161270f565b019060005b82811061275f57505050565b806060602080938501015201612753565b8051821015611ed75760209160051b010190565b6000805b825181101561283157828101602001516001600160f81b031916600360fc1b81101580612823575b1590816127fe575b816127d7575b506127d1576127cc9061234c565b612788565b50905090565b604160f81b8110159150816127ef575b5015386127be565b602360f91b10159050386127e7565b9050606160f81b81101580612815575b15906127b8565b50603360f91b81111561280e565b50603960f81b8111156127b0565b50505060019056fea2646970667358221220ec2d92ff5a23e054adafb7b56c5487de00c843b751833cf24e0cbd616c87486a64736f6c634300081400332f8788117e7eff1d82e926ec794901d17c78024a50270940304540a733656f0d",
  "linkReferences": {},
  "deployedLinkReferences": {}
}